:020000040000FA
:100000000C94D4000C94FC000C94FC000C94FC00A8
:100010000C94FC000C94FC000C94FC000C94FC0070
:100020000C94FC000C94FC000C94CE120C943D1328
:100030000C94FC000C94FC000C94FC000C94FC0050
:100040000C94FC000C94FC000C94FC000C94FC0040
:100050000C94FC000C94FC000C94FC000C94841296
:100060000C94FC000C94FC000C94FC000C94FC0020
:100070000C94FC000C94FC000C94FC000C94FC0010
:100080000C94FC000C94FC000C94FC000C94FC0000
:100090000C94FC000C94FC000C94FC000C94FC00F0
:1000A0000C94FC000C94FC000C94FC00080B000267
:1000B0000202000009040000010202000005240001
:1000C0001001052401010104240206052406000193
:1000D0000705810310004009040100020A00000026
:1000E00007050202400000070583024000000403E8
:1000F000090412010002EF0201404F1B06920001A9
:1001000001020301537061726B46756E005370619A
:10011000726B46756E2050726F204D6963726F006E
:1001200000000000240027002A002D0030000000FD
:100130000000250028002B002E00310000000000E8
:100140002300260029002C002F00040404040403CB
:100150000405020202020403020202020606060667
:10016000060604040202020404040802011040808E
:10017000401020408040800802040180402010028E
:1001800001108010204040200000000200090F00F4
:1001900000030401000C000000000000000000004B
:1001A0000000000000006F1511241FBECFEFDAE041
:1001B000DEBFCDBF14E0A0E0B1E0E6E6F3E302C0AD
:1001C00005900D92AA3FB107D9F726E0AAEFB4E057
:1001D00001C01D92AF3BB207E1F710E0C4EDD0E0E3
:1001E00004C02197FE010E943118C33DD107C9F711
:1001F0000E948A150C94B1190C940000FC018091A6
:100200005405882311F13FB7F89482E08093E90008
:100210002091F200822F90E01816190614F481E064
:1002200090E0882339F0289844E6409353054091A4
:10023000F1004083222339F02091F200211103C004
:100240002BE62093E8003FBF08958FEF9FEF0895BE
:100250002FB7F89483E08093E9009091E800892F0C
:10026000807295FF04C09091F20080E4891B2FBF3B
:10027000089580914B0581110DC082E08093470560
:1002800084E08093480510924A051092490581E068
:1002900080934B0587E495E0089581508F3008F0F6
:1002A00047C0E82FF0E0E95AFE4F0C943118740172
:1002B000780166016C0170019801980198017B0139
:1002C0008101850189018F0198019301809180004E
:1002D0008F77809380000895809180008F7DF9CF83
:1002E00080918000877FF5CF84B58F7784BD089596
:1002F00084B58F7DFBCF809190008F7780939000A5
:100300000895809190008F7DF9CF80919000877F34
:10031000F5CF8091C0008F778093C00008958091C1
:10032000C0008F7DF9CF8091C200877F8093C2008B
:100330000895CF93DF93282F30E0F901E857FE4F5F
:100340008491F901E759FE4FD491F901E65BFE4F24
:10035000C491CC23A1F081110E944D01EC2FF0E05B
:10036000EE0FFF1FE45CFE4FA591B491EC91ED23DD
:1003700081E090E009F480E0DF91CF91089580E082
:1003800090E0FACF1F93CF93DF93282F30E0F9014D
:10039000E857FE4F8491F901E759FE4FD491F901D6
:1003A000E65BFE4FC491CC23A9F0162F81110E9469
:1003B0004D01EC2FF0E0EE0FFF1FE25DFE4FA59127
:1003C000B4918FB7F894EC91111108C0D095DE2349
:1003D000DC938FBFDF91CF911F910895DE2BF8CF73
:1003E000CF93DF9390E0FC01E759FE4F2491865BA9
:1003F0009E4FFC0184918823C9F090E0880F991FDB
:10040000FC01E05EFE4FA591B491FC01E25DFE4F60
:10041000C591D49161110DC09FB7F8948C9120952E
:1004200082238C938881282328839FBFDF91CF91DB
:100430000895623051F49FB7F8943C91822F8095D3
:1004400083238C93E8812E2BEFCF8FB7F894EC9118
:100450002E2B2C938FBFEACF3FB7F89480914305A2
:1004600090914405A0914505B091460526B5A89BFD
:1004700005C02F3F19F00196A11DB11D3FBFBA2F36
:10048000A92F982F8827BC01CD01620F711D811DF6
:10049000911D42E0660F771F881F991F4A95D1F77B
:1004A00008958F929F92AF92BF92CF92DF92EF9278
:1004B000FF924B015C010E942C026B017C010E94A7
:1004C0002C026C197D098E099F09683E73408105D5
:1004D0009105A8F321E0821A9108A108B10888EEDD
:1004E000C80E83E0D81EE11CF11C81149104A10404
:1004F000B10429F7FF90EF90DF90CF90BF90AF90BD
:100500009F908F90089540911A0550911B0520915E
:1005100018053091190542175307B4F49091E8007B
:100520009570E1F39091E80092FD19C08093F1007D
:1005300080911A0590911B0501968F739927892B3D
:1005400019F48EEF8093E80080911A0590911B05B5
:10055000019690931B0580931A0581E0089580E031
:100560000895EF92FF920F931F93CF93DF93F82E8E
:10057000192FE62E042F81E0860F880F0E94830238
:1005800083E00E948302CF2DD12FEC0EFD2EF11CB3
:10059000CE15DF05B9F007FF13C0FE0184910E945C
:1005A0008302182F80E00E9483028123219681110B
:1005B000EFCFDF91CF911F910F91FF90EF900895B2
:1005C0008881EDCF81E0F5CFDF92EF92FF920F931C
:1005D0001F93CF93DF93D82E8A01EB017B01E40EAA
:1005E000F51ECE15DF0559F0D7FE12C0FE0184912D
:1005F0000E94830221968111F4CF0FEF1FEFC801F3
:10060000DF91CF911F910F91FF90EF90DF900895B0
:100610008881EECF0F931F93CF93DF931F92CDB7B7
:10062000DEB782E0898342E450E06CEA70E080E863
:100630000E94E4020E943901DC0112960D911C9186
:100640000115110589F0D801ED91FC910280F3812B
:10065000E02DBE016F5F7F4FC801099597FD04C073
:10066000F80100851185ECCF89810F90DF91CF9142
:100670001F910F910895615030F02091F100FC011D
:1006800020830196F8CF289884E680935305089537
:100690008F929F92AF92BF92CF92DF92EF92FF9292
:1006A0000F931F93CF93DF936C017B018A0180919D
:1006B0000B01882309F45CC080915405882309F458
:1006C00057C080911E0580FF05C08091E0008260C8
:1006D0008093E000E801B12C8AEFA82E93E0892EE8
:1006E0002AE3922E209711F4BB20D9F10E94280111
:1006F00081110AC0AA94AA20D9F161E070E080E0DB
:1007000090E00E945102EECF8C171D0611F00CF004
:100710008C2F9FB7F8948092E9002091E80025FD86
:1007200002C09FBFDFCF282F30E0C21BD30BF701E1
:10073000815020F041914093F100FACFE20EF31E78
:10074000BB2021F09092E800B12CEBCF8091E80023
:1007500085FDE7CF9092E800BB24B394209709F37E
:10076000F3CF5D9884E680931D05101611063CF0CA
:1007700081E090E0F6019383828310E000E0C801FD
:10078000DF91CF911F910F91FF90EF90DF90CF906D
:10079000BF90AF909F908F900895CF93DF931F925B
:1007A000CDB7DEB76983DC01ED91FC910280F38166
:1007B000E02D41E050E0BE016F5F7F4F09950F9043
:1007C000DF91CF91089583E08093E9008091F2005A
:1007D000882319F08AE38093E80008950E94280195
:1007E00090E00895CF93DF931F92CDB7DEB7FC0161
:1007F0008485958597FD08C02FEF3FEF35872487C7
:100800000F90DF91CF910895CE0101960E94FE00D6
:10081000019719F4898190E0F3CF8FEF9FEFF0CF2C
:100820000F931F93CF93DF931F92CDB7DEB78C0149
:10083000FC018485958597FF0BC0CE0101960E942F
:10084000FE00019771F4898190E0F8019587848713
:10085000F801848595850F90DF91CF911F910F91BD
:1008600008958FEF9FEFF1CFFC018485958597FD6B
:100870000BC09FB7F89482E08093E9008091F2006A
:100880009FBF90E0019608959FB7F89482E080930F
:10089000E9008091F2009FBF90E0089508950895C7
:1008A0000895FC012081822F837090E0019690933F
:1008B0002A058093290522FB222720F92093280569
:1008C000FB0110820895CF92DF92EF92FF920F9377
:1008D0001F93CF93DF936B01FC01C1918F01D0E097
:1008E0002097B1F07E01C930D1051CF088E0E82ED8
:1008F000F12CF80161918F0170E090E080E0E091CF
:100900002205F0912305A7010995CE19DF09E8CF4B
:10091000F6011082DF91CF911F910F91FF90EF9020
:10092000DF90CF900895FC018081918190932705FD
:100930008093260518161906ACF48BE399E0909382
:1009400025058093240588E599E0909323058093FD
:10095000220583E999E09093210580932005FB010E
:100960001082089587ED99E09093250580932405E2
:1009700084EE99E0909323058093220581E19AE02B
:10098000EACFFB0110820895FB0110820895FC015B
:10099000808191818230910538F0880F991F880FEE
:1009A000991F05970197F1F7FB0110820895FC014B
:1009B000808190E09093300580932F058181928112
:1009C00090932E0580932D058381948190932C051F
:1009D00080932B05FB0110820895CF93DF93EB01E9
:1009E00060E080913B050E94F00160E08091390554
:1009F0000E94F00160E0809137050E94F0011092A2
:100A00003605109235051882DF91CF910895CF9366
:100A1000FC01808190E01092360510923505009718
:100A2000D9F4C091390561E08C2F0E94F00161E09A
:100A30008C2F0E94C201C0913B0561E08C2F0E9467
:100A4000F00161E08C2F0E94C20161E080913705C6
:100A50000E94F0010000FECF019719F3FB01108204
:100A6000CF910895CF93DF93EB01FC0120812111F9
:100A700007C061E08181811160E08DE00E94C201C8
:100A80001882DF91CF91089530E020E028173907D0
:100A900024F400002F5F3F4FF9CF089561E080916B
:100AA00039050C94F00160E0809139050C94C20185
:100AB00061E0809139050C94C2012F923F924F92D0
:100AC0005F926F927F928F929F92AF92BF92CF92DE
:100AD000DF92EF92FF920F931F93CF93DF9300D09B
:100AE00000D000D0CDB7DEB75B018C010F701127AD
:100AF00046E959E6002E02C0559547950A94E2F75B
:100B000041705527052E000C660B770BF5E0440F5E
:100B1000551F661F771FFA95D1F7000F111F016847
:100B2000012E000C220B330B6A017B01C02AD12A53
:100B3000E22AF32AC982DA82EB82FC82912C812C90
:100B40008C0102701127B6E92B2EB9E63B2E80915D
:100B50002D0590912E05881699060CF029C1E0917B
:100B60002205F091230548E050E069817A818B816C
:100B70009C81099560E0809139050E94F001E09127
:100B80002405F09125058091290590912A05099564
:100B9000E0912005F091210583E090E009957E83A6
:100BA0006D836130710509F0CBC00115110509F4A1
:100BB00077C0E0912005F091210580E290E0099551
:100BC0002B013C016301EE24FF24C626D524E82630
:100BD000F724BB27AF2D9E2D8D2D8C259D25AE2571
:100BE000BF25AC01BD01E4E0769567955795479523
:100BF000EA95D1F76C017D01C426D526E626F726B5
:100C0000E0912005F091210581E090E00995AB018C
:100C1000BC019FE0C922DD24EE24FF24C10102C0F3
:100C200095958795CA94E2F781709927092E000C53
:100C3000AA0BBB0B481759076A077B0721F0E8E0AE
:100C4000F0E0FE83ED83A114B10429F0F5014082A8
:100C5000518262827382E0912405F0912505809192
:100C6000290590912A0509950E944E050E94530579
:100C7000E0912405F091250580912F059091300594
:100C800009950E945805ED81FE81329709F094C0C4
:100C90008091550581118CC0FFEF8F1A9F0A57CFA5
:100CA000E0912405F09125058091290590912A0570
:100CB00009950E944E05F5016081718182819381C1
:100CC000E0912205F091230540E250E00995F501FD
:100CD0004081518162817381CB01AA27BB27842780
:100CE0009527A627B727492F5A2F6B2F77278427B9
:100CF0009527A627B727AC01BD0134E07695679507
:100D0000579547953A95D1F784279527A627B72772
:100D10008F709927AA27BB27B10102C075956795E7
:100D20008A95E2F761707727072E000C880B990BE4
:100D3000E0912205F091230541E050E0099596CF1E
:100D4000E0912405F09125058D819E8182309105E9
:100D500011F0049739F580912805882331F00115A9
:100D6000110519F081E290E00995E0912405F091D8
:100D700025058091290590912A0509950E944E0527
:100D800080912805882309F47CCF0115110509F00D
:100D900078CF0E945305E0912405F091250581E26A
:100DA00090E06ECF8091290590912A05819668CFB9
:100DB00082E090E09E838D838D819E8126960FB682
:100DC000F894DEBF0FBECDBFDF91CF911F910F9181
:100DD000FF90EF90DF90CF90BF90AF909F908F905B
:100DE0007F906F905F904F903F902F9008950F935A
:100DF0001F93CF93DF9300D000D0CDB7DEB7209103
:100E00003505309136052130310599F48B01FC010F
:100E100081819281A381B48189839A83AB83BC83CE
:100E2000BE016F5F7F4F90E080E00E945D05F8019A
:100E300010820F900F900F900F90DF91CF911F9124
:100E40000F9108954F925F926F927F928F929F922F
:100E5000AF92BF92CF92DF92EF92FF920F931F93C8
:100E6000CF93DF9300D000D0CDB7DEB7FB01108267
:100E700011821282209135053091360521303105DD
:100E800009F07FC0DC011196CD90DC90C114D10433
:100E900009F477C03B01FC012381822E912C21FDB6
:100EA00023C07C01F4E0EF0EF11C90E080E010E044
:100EB00000E00C151D050CF054C0F70181919191D3
:100EC000A191B1917F0189839A83AB83BC83BE01D9
:100ED0006F5F7F4FC4010E945D058130910509F06D
:100EE00049C00F5F1F4FE5CF260120FF03C02FEF42
:100EF000421A520A730183E0E80EF11CB12CA12CB6
:100F000080E010E000E0A414B504A4F5CA14DB04EA
:100F100019F48EE0882E912CBE016F5F7F4FC401C3
:100F20000E945D058130910529F5A114B10411F4E9
:100F300080FC13C059814A813B812C81D7015C938D
:100F400011964C93119712963C93129713962C93EB
:100F5000B4E0EB0EF11C0F5F1F4FEFEFAE1ABE0AAD
:100F6000D2CF8130910531F470E060E08EE090E006
:100F70000E945D05D3010C9311961C931197129654
:100F80008C930F900F900F900F90DF91CF911F9146
:100F90000F91FF90EF90DF90CF90BF90AF909F9018
:100FA0008F907F906F905F904F9008952F923F9217
:100FB0004F925F926F927F928F929F92AF92BF9269
:100FC000CF92DF92EF92FF920F931F93CF93DF9315
:100FD000CDB7DEB764970FB6F894DEBF0FBECDBFB6
:100FE000FB011082118220913505309136052130A8
:100FF000310509F0ABC07E836D837C01FC018181EA
:10100000482E512C5C864B8622E0E20EF11C8B01AF
:101010000E5F1F4F20E0312C90E080E0912C812C5E
:101020004B845C844814590409F4FAC02090550597
:101030002110F6C0F70171906F01A72CB12C33205D
:10104000D1F0872D8370BE016F5F7F4F833009F031
:1010500056C0C5010E945D058130910509F072C03E
:1010600059814A813B812C81F8015083418332832D
:1010700023830C5F1F4F71FEACC074FE80C0F7016C
:101080004180528063807480498A5A8A6B8A7C8A44
:101090006701F5E0CF0ED11CF12CE12C20912B053E
:1010A00030912C05E216F30684F5BE016F5F7F4F89
:1010B000C5010E945D058130910539F549805A804E
:1010C0006B807C8020913105309132054091330551
:1010D00050913405422253226422752229893A898B
:1010E0004B895C89241535054605570571F020911B
:1010F000550521110AC03FEFE31AF30ACFCF8EE066
:1011000090E00E945D05312CA7CF49805A806B800A
:101110007C8020913105309132054091330550910A
:101120003405422253226422752229893A894B8947
:101130005C89241535054605570509F08061813025
:10114000910561F1ED81FE818082818364960FB605
:10115000F894DEBF0FBECDBFDF91CF911F910F91ED
:10116000FF90EF90DF90CF90BF90AF909F908F90C7
:101170007F906F905F904F903F902F90089570FEFA
:1011800013C031100BC070E060E0C5010E945D0526
:1011900081309105B9F6212C332433942FEF821A34
:1011A000920A222D76013CCFBE016F5F7F4FC501B1
:1011B0000E945D058130910529F659814A813B8164
:1011C0002C81F80150834183328323830C5F1F4FAE
:1011D000E5CFF70181819281A381B48189839A83CC
:1011E000AB83BC836701F5E0CF0ED11C75FE0BC04D
:1011F0008093310590933205A0933305B093340565
:1012000081E090E0CBCFBE016F5F7F4FC5010E94B0
:101210005D058130910509F095CF22242394BECF3E
:101220008130910509F08ECF332089F0BE016F5FC8
:101230007F4F8EE090E00E945D0559814A813B819D
:101240002C81F80150834183328323837BCF222377
:1012500009F478CF70E060E08EE090E00E945D05D8
:1012600071CF60E080913B050C94C20161E08091F8
:101270003B050C94C2010F931F93CF93DF93EC01B6
:101280001C161D0684F421970E9431090091260541
:1012900010912705C8010E9444050E943609C80123
:1012A0000E944405EDCFDF91CF911F910F910895DA
:1012B000AF92BF92CF92DF92EF92FF920F931F9364
:1012C000CF93DF936B017C015A01D0E0C0E0CA15D7
:1012D000DB05F4F4C60181709927892BB1F40E94D3
:1012E00053050E9431090091260510912705C80178
:1012F0000E9444050E943609C8010E944405F694E4
:10130000E794D794C7942196E2CF0E945805E9CF7D
:10131000DF91CF911F910F91FF90EF90DF90CF90D1
:10132000BF90AF900895AF92BF92CF92DF92EF92AD
:10133000FF920F931F93CF93DF935C01D0E0C0E047
:10134000C12CD12C7601CA15DB0524F50E94310988
:101350000091260510912705C8010E94440580913F
:1013600039050E949901092E000CAA0BBB0B0C2E0B
:1013700004C0880F991FAA1FBB1F0A94D2F7C82A5E
:10138000D92AEA2AFB2A0E943609C8010E9444058C
:101390002196D9CFC701B601DF91CF911F910F914F
:1013A000FF90EF90DF90CF90BF90AF900895CF93D4
:1013B000DF93EC01219728F00E9431090E94360941
:1013C000F9CFDF91CF910895CF92DF92EF92FF9204
:1013D0000F931F93CF93DF936B017C018A01D0E0C1
:1013E000C0E0C017D107A4F4C60181709927892BEA
:1013F00061F40E9453050E943109F694E794D79452
:10140000C7940E9436092196ECCF0E945805F3CF6D
:10141000DF91CF911F910F91FF90EF90DF90CF90D0
:101420000895AF92BF92CF92DF92EF92FF920F9307
:101430001F93CF93DF938C01D0E0C0E0C12CD12C5F
:101440007601C017D107DCF40E943109809139057B
:101450000E9499015C010E943609C501BB0CAA0BD0
:10146000BB0B0C2E04C0880F991FAA1FBB1F0A9428
:10147000D2F7C82AD92AEA2AFB2A2196E2CFC70145
:10148000B601DF91CF911F910F91FF90EF90DF9008
:10149000CF90BF90AF900895CF92DF92FF920F93BD
:1014A0001F93CF93DF93FC01EB0110810181C28078
:1014B000D38000FF04C010FD47C00E94310901FF26
:1014C00004C011FD44C00E945305F090370507FF8A
:1014D00005C0612F60788F2D0E94C20128EE33E095
:1014E000C29EC001C39E900DD29E900D11248230E9
:1014F000910538F0880F991F880F991F059701975C
:10150000F1F780913B050E94990101E010E0892BE1
:1015100009F400E0809139050E949901009711F0CB
:1015200082E090E0082B8F2D0E949901009711F026
:1015300080E890E0082B0883DF91CF911F910F91F5
:10154000FF90DF90CF9008950E943609B8CF0E9497
:101550005805BBCF81E0089510922705109226050B
:1015600087ED99E0909325058093240584EE99E01A
:10157000909323058093220581E19AE090932105C1
:1015800080932005CB01BA01089563E070E080E00C
:1015900090E008950895FC0101900020E9F731974B
:1015A000AF01481B590BBC0186E596E00C9448033B
:1015B00081EA91E00C94CB0A8F929F92AF92BF92F6
:1015C0000F931F93CF93DF93CDB7DEB7A1970FB6DD
:1015D000F894DEBF0FBECDBF19A2423008F44AE036
:1015E0008E010F5D1F4F842E912CB12CA12CA501D3
:1015F00094010E940F18E62FB901CA01EA30F4F4F1
:10160000E05DD801EE938D01232B242B252B79F758
:1016100090E080E0109719F0CD010E94CB0AA196CE
:101620000FB6F894DEBF0FBECDBFDF91CF911F91F3
:101630000F91BF90AF909F908F900895E95CE1CF9C
:10164000CF93DF93D0E0C0E0009719F00E94CB0A5F
:10165000EC010E94D80A8C0F9D1FDF91CF91089555
:101660000C94CB0AEC0184EA91E00E94300BCE018D
:101670000E94200B68EE73E080E090E00E9451022F
:10168000F9CFBF92CF92DF92EF92FF920F931F9309
:10169000CF93DF93CDB7DEB7CC54D1090FB6F89412
:1016A000DEBF0FBECDBF6C018B017A01DB01BC90A8
:1016B00041E450E06FEF70E086E595E00E949319F9
:1016C000F8948CE4E2E1F1E0DE01119601900D92D4
:1016D0008A95E1F7F8018081282F30E0E8E5F5E010
:1016E0009EE3DF011D929A95E9F7109255058093CC
:1016F00056058FEF80935705FE01319690E080E00C
:10170000408151814F3F5407C1F13496241735076A
:1017100091F5880F991F880F991FE1E0F0E0EC0F19
:10172000FD1FE80FF91F0280F381E02D67E575E0EA
:10173000C801019609957894209156058B2DBB0C14
:10174000990B2817190611F18CEA91E0F6019383A1
:10175000828380E0C45BDF4F0FB6F894DEBF0FBE1C
:10176000CDBFDF91CF911F910F91FF90EF90DF9050
:10177000CF90BF9008950196C3CF205831092032F1
:101780003105C8F28FEF80935605D5CFA70167E5E5
:1017900075E0C8010E948A1981E0DCCFCF93DF9306
:1017A0001F92CDB7DEB783E0898341E050E0BE01F0
:1017B0006F5F7F4F86EA96E00E94410B0F90DF91AA
:1017C000CF910895CF93DF9340E10E94DC0AEC01B2
:1017D0000E94D80A8C0F9D1FDF91CF910895EF9240
:1017E000FF921F93CF93DF93CDB7DEB728970FB645
:1017F000F894DEBF0FBECDBF7C01162F85E0898334
:101800001A8281E08B836C832D833E834F835887BC
:1018100048E050E0BE016F5F7F4FC7010E94410B5F
:101820008981813019F48A81813041F186EC91E01F
:101830000E94300B612F70E090E080E040E10E9458
:10184000DC0A87EE91E00E94300B698170E090E045
:1018500080E04AE00E94DC0A82EF91E00E94300BB7
:101860006A8170E090E080E04AE00E94DC0AD701E3
:101870005396ED91FC918DEF91E0099581E02896CA
:101880000FB6F894DEBF0FBECDBFDF91CF911F9191
:10189000FF90EF9008952F923F924F925F926F9238
:1018A0007F928F929F92AF92BF92CF92DF92EF92F0
:1018B000FF920F931F93CF93DF93CDB7DEB7D45032
:1018C0000FB6F894DEBF0FBECDBF5C012A013B010D
:1018D0004901D12CC12C212C34E0332E01151105E6
:1018E00009F453C0C20193707101E81AF90AC801E2
:1018F000093F21E0120714F088EF91E08E159F0553
:101900000CF47C01A301920165E0C5010E94EF0B7C
:1019100086E089831A82C701F7FC0396959587951F
:10192000959587958B839C832DE02D83A701B4012A
:101930006C0D7D1DCE0106960E948A19A7014B5F92
:101940005F4FBE016F5F7F4FC5010E94410B8B81CE
:10195000813069F08FEF91E00E94200B6B8170E085
:1019600090E080E04AE00E94DC0A0E94D80A0E194A
:101970001F09C7010F2C000CAA0BBB0B480E591EE8
:101980006A1E7B1ECE0CDF1CA9CF81E0DC5F0FB688
:10199000F894DEBF0FBECDBFDF91CF911F910F91A5
:1019A000FF90EF90DF90CF90BF90AF909F908F907F
:1019B0007F906F905F904F903F902F9008952F925F
:1019C0003F924F925F926F927F928F929F92AF92CF
:1019D000BF92CF92DF92EF92FF920F931F93CF931C
:1019E000DF93CDB7DEB7D4500FB6F894DEBF0FBE8D
:1019F000CDBF5C012A013B014901D12CC12C212C16
:101A000034E0332E0115110509F452C0C201937060
:101A10007101E81AF90AC8010931110514F088E1C9
:101A200090E08E159F050CF47C01A301920165E006
:101A3000C5010E94EF0B86E089831A82C701F7FC7B
:101A4000039695958795959587958B839C838FE0D5
:101A50008D8340E054E0BE016F5F7F4FC5010E945F
:101A6000410B8B81813069F089E292E00E94200B6A
:101A70006B8170E090E080E04AE00E94DC0A0E9406
:101A8000D80AA701BE016C5F7F4FC4018C0D9D1D5C
:101A90000E948A190E191F09C7010F2C000CAA0BEE
:101AA000BB0B480E591E6A1E7B1ECE0CDF1CAACF34
:101AB00081E0DC5F0FB6F894DEBF0FBECDBFDF91D3
:101AC000CF911F910F91FF90EF90DF90CF90BF903B
:101AD000AF909F908F907F906F905F904F903F90CE
:101AE0002F9008952F923F924F925F926F927F9224
:101AF0008F929F92AF92BF92CF92DF92EF92FF921E
:101B00000F931F93CF93DF93CDB7DEB7C450D2406E
:101B10000FB6F894DEBF0FBECDBF1C01CF5FDD4F07
:101B2000488359836A837B83C150D240480159015D
:101B3000CC24CA94DC2C760181149104A104B10454
:101B400009F45AC02401350141E0841642E09406AC
:101B5000A104B10428F0412CB2E05B2E612C712C61
:101B600082019E012F5F3F4FCF5FDD4F488159813A
:101B70006A817B81C150D240C1010E94DF0CFE010D
:101B800031969F01240D351D8191C82688E090E093
:101B9000B701A6014170552766277727F694E79489
:101BA000D794C794452B462B472B41F0A0E2CA2679
:101BB000A3E8DA26A8EBEA26ADEEFA26019741F76C
:101BC000E217F30709F7CF5FDD4F88819981AA817A
:101BD000BB81C150D240840D951DA61DB71DCF5F9E
:101BE000DD4F88839983AA83BB83C150D240841878
:101BF0009508A608B708A0CFC701B60160957095F3
:101C000080959095CC5FDD4F0FB6F894DEBF0FBE88
:101C1000CDBFDF91CF911F910F91FF90EF90DF909B
:101C2000CF90BF90AF909F908F907F906F905F907C
:101C30004F903F902F900895CF92DF92EF92FF92B6
:101C40000F931F93CF93DF93EC0179019A01AB01BE
:101C500065E00E94EF0BA70198016DE0CE010E94A4
:101C6000EF0B81E0DF91CF911F910F91FF90EF90EB
:101C7000DF90CF9008950F931F93CF93DF93EC01E4
:101C800000E010E098014CEF5DEE60E070EE0E9425
:101C90001C0E04E010E02AEF35E04CE05DEE60E061
:101CA00070EECE010E941C0EDF91CF911F910F911B
:101CB00008950F931F93CF93DF93CDB7DEB7289787
:101CC0000FB6F894DEBF0FBECDBF8C019A01AB01F9
:101CD00065E00E94EF0B85E089831A8281E08B83A7
:101CE0008FE08C8348E050E0BE016F5F7F4FC801FA
:101CF0000E94410B8981813019F48A81813041F140
:101D000083E592E00E94300B40E16DE070E080E0FE
:101D100090E00E94DC0A87EE91E00E94300B69811E
:101D200070E090E080E04AE00E94DC0A82EF91E0FF
:101D30000E94300B6A8170E090E080E04AE00E94EF
:101D4000DC0AD8015396ED91FC918DEF91E0099555
:101D50006B817C818D819E8128960FB6F894DEBFC1
:101D60000FBECDBFDF91CF911F910F9108952F929C
:101D70003F924F925F926F927F928F929F92AF921B
:101D8000BF92CF92DF92EF92FF920F931F93CF9368
:101D9000DF9300D000D0CDB7DEB79C838B834A01A0
:101DA0005B01190127013801DB01CA018370992702
:101DB000AA27BB27892B8A2B8B2B09F051C001E066
:101DC00010E020E030E044E055EE6FEF7FEF8B81D4
:101DD0009C810E941C0E4114510461047104A9F1FC
:101DE0007301620121E0421624E05206610471048D
:101DF00028F0C12C84E0D82EE12CF12CF101DA82FC
:101E0000C982C1018C0D9D1D21912F3F09F03FC05A
:101E1000E817F907C9F780E08C0C9D1CAE1CBF1CAD
:101E200029813A81220E331E4C185D086E087F0806
:101E3000882389F240E054EE6FEF7FEF8B819C8125
:101E40000E94590E60FFF6CFC6CF00E010E0980167
:101E500044E055EE6FEF7FEF8B819C810E941C0E5A
:101E60000F900F900F900F90DF91CF911F910F91D6
:101E7000FF90EF90DF90CF90BF90AF909F908F90AA
:101E80007F906F905F904F903F902F9008958601C4
:101E90009101B501A4018B819C810E944B0C81E0D2
:101EA000BBCF8F929F92AF92BF92CF92DF92EF9271
:101EB000FF920F931F93CF93DF93EC016A017B0195
:101EC0004801590101E010E020E030E044E055EE27
:101ED0006FEF7FEF0E941C0E95018401B701A601F0
:101EE000CE010E941C0E40E054EE6FEF7FEFCE015A
:101EF0000E94590E60FFF7CF00E010E0980144E027
:101F000055EE6FEF7FEFCE010E941C0EDF91CF9157
:101F10001F910F91FF90EF90DF90CF90BF90AF9007
:101F20009F908F900895CF92DF92EF92FF920F9340
:101F30001F93CF93DF93FC0142855385648575859C
:101F400041155105F8E06F07710599F041155105EC
:101F500020E162077105B1F1411551056440710539
:101F600039F5C12CD12C760100E010EC23E030E0F3
:101F70000AC0C12C30EED32E37E0E32EF12C00E066
:101F800010E427E030E0EC0144E150E160E070E172
:101F90000E94510FC114D104E104F10449F09701EA
:101FA000860148E150E160E070E1CE010E94510FEE
:101FB00081E0DF91CF911F910F91FF90EF90DF9023
:101FC000CF900895C12C20EED22E2FE0E22EF12CDE
:101FD00000E010E42FE030E0D6CF0F931F93CF93B3
:101FE000DF93EC0102E010E020E030E044E055EE49
:101FF0006FEF7FEF0E941C0E01E010E020E030E068
:102000004CE055EE6FEF7FEFCE010E941C0E40E0DA
:1020100054EE6FEF7FEFCE010E94590E60FFF7CFB5
:1020200000E010E0980144E055EE6FEF7FEFCE0145
:102030000E941C0EDF91CF911F910F910895FB011B
:10204000DC018C9190E09C01215031092630310552
:10205000A8F4880F991FDC01A25ABE4F6D917C91A4
:102060006115710549F0DB010D900020E9F7A61B11
:10207000A193CF010C949A1910820895803F910585
:1020800021F481E08083818308958E3F9105C9F317
:102090008F3F910529F482E0808380E4818312825E
:1020A00008952F923F924F925F926F927F928F92FC
:1020B0009F92AF92BF92CF92DF92EF92FF920F93D7
:1020C0001F93CF93DF93CDB7DEB7C750D8400FB67D
:1020D000F894DEBF0FBECDBFCF5FD74F9983888303
:1020E000C150D8404A015B01CD5FD74F3983288367
:1020F000C350D84027013801C95FD74FC882C750A5
:10210000D84001E010E020E030E044E055EE6FEF11
:102110007FEF0E941C0E1E012FEF221A2BEF320AB6
:10212000411451046104710409F45BC0730162013C
:1021300031E0431634E053066104710428F0C12CE9
:1021400084E0D82EE12CF12C40E054E06FEF70E0F9
:10215000CE0101960E949319CB5FD74FD982C882D6
:10216000C550D840A601CD5FD74F68817981C35053
:10217000D840CE0101960E948A19FE0131968191C4
:102180008F3F09F03FC0E215F305C9F78C0C9D1C89
:10219000AE1CBF1CCD5FD74F88819981C350D840FA
:1021A000CB5FD74FE881F981C550D8408E0F9F1F74
:1021B000CD5FD74F99838883C350D8404C185D08B2
:1021C0006E087F0840E054EE6FEF7FEFCF5FD74F90
:1021D00088819981C150D8400E94590E60FFF2CF8A
:1021E0009FCF00E010E0980144E055EE6FEF7FEFE5
:1021F000CF5FD74F88819981C150D8400E941C0E73
:1022000081E03AC086019E012F5F3F4FB501A401D6
:10221000CF5FD74F88819981C150D8400E944B0C25
:10222000C95FD74FF881C750D840FF2309F4AECF1C
:1022300080E094E0F1019C01119221503040E1F7DF
:1022400086019101B501A401CF5FD74F88819981A3
:10225000C150D8400E94DF0CCB5FD74F48815981D5
:10226000C550D840BE016F5F7F4FC1010E947D19EC
:10227000892B09F48BCF80E0C95FD74F0FB6F89454
:10228000DEBF0FBECDBFDF91CF911F910F91FF90A9
:10229000EF90DF90CF90BF90AF909F908F907F9006
:1022A0006F905F904F903F902F9008958F929F92E4
:1022B000AF92BF92CF92EF92FF920F931F934A017A
:1022C0005B01E3E08E229924AA24BB2489288A2872
:1022D0008B2861F40E9451101F910F91FF90EF9095
:1022E000CF90BF90AF909F908F90089580E0F4CFF3
:1022F0004F925F926F927F928F929F92AF92BF9216
:10230000EF92FF920F931F93CF93DF93CDB7DEB77A
:1023100028970FB6F894DEBF0FBECDBF7C013B01FE
:1023200026E130E040E050E060E00E94EF0B20E06A
:1023300030E0A90168E0C7010E94EF0B20E03FE018
:1023400040E050E564E0C7010E94EF0B22E530E079
:1023500040E053E261E0C7010E94EF0B03E010E0B0
:102360002FE530EA40EF5DEE60E070EEC7010E94BD
:102370001C0E01E010E020E030E04CEF5DEE60E08C
:1023800070EEC7010E941C0E04E010E02AEF35E059
:102390004CE05DEE60E070EEC7010E941C0E40E074
:1023A00051E060E070E1C7010E94590E4B015C01F1
:1023B00044E051E060E070E1C7010E94590E0E94C4
:1023C000371869837A838B839C83F301808291829F
:1023D000A282B382F2E38F16F8E29F06F5E0AF0621
:1023E000B10409F489C090F5E2E28E16E4E19E069C
:1023F000E5E0AE06B10409F44AC06FE772E0F2E22C
:102400008F16F8E19F06F5E0AF06B10409F441C06C
:102410008BEA92E00E94300BC501B4010E94E20BEE
:1024200080E028960FB6F894DEBF0FBECDBFDF91D7
:10243000CF911F910F91FF90EF90BF90AF909F9021
:102440008F907F906F905F904F90089583E38816F0
:1024500088E2980685E0A806B10409F450C061EA54
:1024600072E0E0E48E16E8E29E06E5E0AE06B10416
:1024700079F68AEF94E00E949A1944E050E0BE0198
:102480006F5F7F4F8AEF94E00E94A11906C061E759
:1024900072E08AEF94E00E949A1940E150E060E017
:1024A00070E1C7010E94590E6D837E838F839887E8
:1024B00044E150E060E070E1C7010E94590E2B0139
:1024C0003C01F70184829582A682B7828AEF94E06C
:1024D000918780872D813E814F815885C301B2014C
:1024E0000E94FF1762877387848795874686578681
:1024F000608A718A81E095CF6DE872E0BACF67E9B2
:1025000072E0B7CF0C94F4181F920F920FB60F928F
:1025100011242F933F938F939F93AF93BF938091F9
:102520003F0590914005A0914105B0914205309141
:102530003E0523E0230F2D3758F50196A11DB11D4F
:1025400020933E0580933F0590934005A09341055D
:10255000B09342058091430590914405A0914505B3
:10256000B09146050196A11DB11D8093430590933E
:102570004405A0934505B0934605BF91AF919F9147
:102580008F913F912F910F900FBE0F901F90189534
:1025900026E8230F0296A11DB11DD2CF1F920F92E4
:1025A0000FB60F9211248F939F938091E100909129
:1025B000E100937F9093E10083FF0FC01092E90048
:1025C00091E09093EB001092EC0092E39093ED0079
:1025D0001092540598E09093F00082FF22C093E09F
:1025E0009093E9009091F200992319F09AE3909367
:1025F000E80090911D05992341F090911D0591509F
:1026000090931D05911101C05D9A909153059923F6
:1026100041F090915305915090935305911101C051
:10262000289A84FF18C08091E2008E7E816080939A
:10263000E2008091E1008F7E8093E10080911E0591
:102640008E7E806180931E059F918F910F900FBEAB
:102650000F901F90189580FFF7CF8091E2008E7E3B
:1026600080618093E2008091E1008E7E8093E100A2
:1026700080911E058E7E8160E5CF1F920F920FB66E
:102680000F921124CF92DF92EF92FF920F931F933C
:102690002F933F934F935F936F937F938F939F936A
:1026A000AF93BF93EF93FF93CF93DF93CDB7DEB795
:1026B0006C97DEBFCDBF1092E9008091E80083FFE8
:1026C00025C068E0CE0145960E943B0382EF8093CF
:1026D000E8008D8987FF39C09091E80090FFFCCF1A
:1026E000982F907609F034C19E894F89588D2F8993
:1026F000F88C911131C0803861F580911F0580936D
:10270000F1001092F1008EEF8093E8006C960FB606
:10271000F894DEBF0FBECDBFDF91CF91FF91EF9157
:10272000BF91AF919F918F917F916F915F914F91E9
:102730003F912F911F910F91FF90EF90DF90CF90DD
:102740000F900FBE0F901F9018959EEF9093E8008A
:10275000C7CF1092F100D5CF913059F48111D3CF6A
:102760004130510581F680911F058D7F80931F05B3
:10277000CACF933049F48111C6CF4130510519F6C3
:1027800080911F058260F2CF953041F48091E8007E
:1027900080FFFCCF20682093E300B5CF963009F08E
:1027A000A9C00B8D1C8D22E01092E90010921B0530
:1027B00010921A05F2122EC01092190510921805E7
:1027C0000E940A031F8299E09983FA8291E09E8316
:1027D00090EA98879AEF998720911A0530911B0506
:1027E000275F3F4F3C832B838D831092E90010922B
:1027F0001B0510921A05109319050093180549E05E
:1028000050E0BE016F5F7F4F80E00E94E4020E94B3
:102810000A0379CF10931905009318050E94390116
:10282000DC0112960D911C910115110509F451C19D
:10283000D801ED91FC910480F581E02DBE016B5E25
:102840007F4FC8010995009709F03EC1F801008546
:102850001185EACFF3E0FF120EC08F89882309F4B7
:1028600040C0823061F440E862E18DE091E00E9476
:10287000B102811148CF81E28093EB0047CF8130D4
:1028800029F440E868E084E091E0F1CF833099F7E3
:102890000E943901DC011296ED90FC908E010F5FD1
:1028A0001F4F6801E114F10479F0D701ED91FC911B
:1028B0000680F781E02DB801C7010995080F111DA9
:1028C000F701E084F184EECFD8011C92F60101906B
:1028D0000020E9F73197BF016C197D0940E0C6017E
:1028E000C6CF6EEE70E0FB01449150E080E80E949C
:1028F000E40209CF973009F4BECF983021F481E08B
:102900008093F10000CF993009F0FDCE837009F07B
:10291000B2CFEDE6F1E081E031E096E321912223B0
:1029200071F08093E9003093EB00DF0111972C9157
:102930002093EC009093ED008F5F873079F78EE75E
:102940008093EA001092EA008F8980935405DBCED1
:102950008B8D9C8D1092E90010921B0510921A0528
:102960009093190580931805898D811192C08E89E5
:102970009D89913A49F4813209F07DCF47E050E0DA
:1029800064E071E080E0B3CF913209F074CF83321C
:1029900069F48F89988DB0E0A0E080930001909356
:1029A0000101A0930201B0930301ADCE803269F41E
:1029B0008091E80082FFFCCF67E084E091E00E9414
:1029C0003B038BEF8093E8009ECE823209F09BCED2
:1029D0008F8980930B01EEEFFFE7859194918B3FF8
:1029E0009C4D51F1E0E0F8E08091040190910501E7
:1029F000A0910601B0910701803B9440A105B1056B
:102A0000F1F480910B0180FD1AC0EE3F8AE0F807D7
:102A100089F587E797E791838083809160008093B1
:102A20001C0588E19BE00FB6F894A89580936000A0
:102A30000FBE9093600067CEEEEFFAE0D5CF8081B5
:102A400091818737974709F05ECEA8958091600005
:102A500088618093600080911C0580936000EE3F48
:102A60002AE0F20789F08091FE0A9091FF0A918393
:102A7000808349CE808191818737980751F2909366
:102A8000FF0A8093FE0AC5CF1092FF0A1092FE0A39
:102A90003ACE0E943901DC0112960D911C9101156C
:102AA000110509F4E8CED801ED91FC910190F08177
:102AB000E02DBE016B5E7F4FC8010995811123CEC9
:102AC000F80100851185EBCF181619060CF41BCE02
:102AD000D2CEF1E0FF12BECE62EF70E004CFE6E5A9
:102AE000F6E01382128288EE93E0A0E0B0E08483E7
:102AF0009583A683B78387E791E0918380838FEFE7
:102B00009FEF9587848789E891E09093A70680934B
:102B1000A6060895CF93DF9300D000D000D0CDB7A4
:102B2000DEB7789484B5826084BD84B5816084BD4D
:102B300085B5826085BD85B5816085BD80916E005B
:102B4000816080936E00109281008091810082608C
:102B500080938100809181008160809381008091C9
:102B600080008160809380008091910082608093DA
:102B700091008091910081608093910080919000FC
:102B80008160809390008091C10084608093C10037
:102B90008091C10082608093C1008091C1008160FA
:102BA0008093C1008091C30081608093C3008091B5
:102BB000C00082608093C0008091C20081608093D9
:102BC000C20080917A00846080937A0080917A00BC
:102BD000826080937A0080917A00816080937A008D
:102BE00080917A00806880937A0010925405109248
:102BF0001F0510921E058091D70081608093D70039
:102C000080EA8093D80089B5806189BD89B58260EA
:102C100089BD09B400FEFDCF61E070E080E090E086
:102C20000E9451028091D8008F7C80618093D800EF
:102C30008091E000807F8093E0008091E1008E7EB3
:102C40008093E1008DE08093E200559A209A8FEF07
:102C50009FEF909363068093620660ED77E080E0DB
:102C600090E00E94510244E6E42EF12C8BE3282EE2
:102C700089E0382E98E5C92E99E0D92E23E9A22EB5
:102C800029E0B22E3DE7832E33E0932E80913D055F
:102C90008111A0C08DEB92E00E94200B0E94D80A07
:102CA00082E39BE09093BA068093B90689E090E0B6
:102CB00090933C0580933B058AE090E090933A0521
:102CC000809339058BE090E0909338058093370529
:102CD0001092360510923505109255051092310567
:102CE000109232051092330510923405109230057F
:102CF00010922F05F0922E05E0922D05F0922C05F2
:102D0000E0922B0581E090E090932A0580932905BD
:102D10001092280582E390E0909327058093260582
:102D20003092250520922405D0922305C0922205D9
:102D3000B0922105A092200560E089E00E94F00198
:102D400062E08AE00E94F00160E08BE00E94F00106
:102D500061E08DE00E94F00161E08DE00E94C2011F
:102D600088EE92E00E94300B0E94CE0B64E670E089
:102D700080E090E00E94510282E0898381E08A83B2
:102D800042E050E0BE016F5F7F4F86EA96E00E940E
:102D9000410B882349F08981813071F18FEF92E0F6
:102DA0009093A9068093A80682E193E00E94200BED
:102DB0008AE193E00E94200B8AE493E00E94200BBA
:102DC0000E94D80A0E94CE0B60ED77E080E090E090
:102DD0000E94510280913D0581110CC160ED77E0A8
:102DE00080E090E00E94510280E090E0892B09F49D
:102DF0004DCF0E9400003ACF84E089831A8280E898
:102E00008B831C828D831E8246E050E0BE016F5F83
:102E10007F4F86EA96E00E94410B81116AC083E1F0
:102E200089831A8242E050E0BE016F5F7F4F86EADD
:102E300096E00E94410B882339F08981882321F094
:102E40009092A9068092A80682E993E00E94200B46
:102E500085E993E00E94300B03E010E02FE530EAB3
:102E600040EF5DEE60E070EE86EA96E00E941C0E98
:102E70006AE070E080E090E00E94510282E993E015
:102E80000E94200B40E050EF67E070E086EA96E099
:102E90000E94590E2B013C0185EA93E00E94300B01
:102EA000C301B2010E94E20B82EC93E00E94300B5E
:102EB00002E010E020E030E044E055EE61E070E434
:102EC00086EA96E00E941C0E6AE070E080E090E0E6
:102ED0000E94510240E054EE61E070E486EA96E020
:102EE0000E94590E60FD10C061E070E080E090E04B
:102EF000EFCF8981882309F492CF83E693E0909302
:102F0000A9068093A8068BCF00E010EF27E030E001
:102F100048E055EE61E070E486EA96E00E941C0EFF
:102F200064E670E080E090E00E94510240E054EEE0
:102F300061E070E486EA96E00E94590E60FD05C0EB
:102F400061E070E080E090E0EFCF00E010E09801F9
:102F500044E055EE61E070E486EA96E00E941C0EC3
:102F60006AE070E080E090E00E94510282E993E024
:102F70000E94200B40E050EF67E070E086EA96E0A8
:102F80000E94590E2B013C018BED93E00E94300B07
:102F9000C301B2010E94E20B472046204520409425
:102FA00021F50E94D80A8BEE93E00E94200B0E942C
:102FB000D80A8CE094E00E94200B88E194E00E9403
:102FC000200B83E494E00E94200B83E694E00E94AF
:102FD000200B8AE894E00E94200B81E080933D055D
:102FE0000E94CE0B0E94D80AF5CE8FE994E00E9491
:102FF000200BF6CF68EE73E080E090E0F3CEDB01CB
:103000008F939F930E943E18BF91AF91A29F800D16
:10301000911DA39F900DB29F900D11240895A1E2E0
:103020001A2EAA1BBB1BFD010DC0AA1FBB1FEE1F42
:10303000FF1FA217B307E407F50720F0A21BB30B8D
:10304000E40BF50B661F771F881F991F1A9469F709
:1030500060957095809590959B01AC01BD01CF0165
:103060000895EE0FFF1F0590F491E02D0994692754
:103070009627692778278727782708950E94491877
:10308000A59F900DB49F900DA49F800D911D1124BC
:103090000895A29FB001B39FC001A39F700D811D31
:1030A0001124911DB29F700D811D1124911D089551
:1030B0000F931F93CF93DF938230910510F482E03A
:1030C00090E0E091BD06F091BE0630E020E0B0E077
:1030D000A0E0309799F42115310509F44AC0281B66
:1030E000390B24303105D8F58A819B816115710532
:1030F00089F1FB0193838283FE0111C040815181DC
:103100000281138148175907E0F04817590799F4CD
:10311000109761F012960C93129713961C933296A7
:10312000CF01DF91CF911F910F9108950093BD06BC
:103130001093BE06F4CF2115310551F04217530705
:1031400038F0A901DB019A01BD01DF01F801C1CF0F
:10315000EF01F9CF9093BE068093BD06CDCFFE015F
:10316000E20FF31F81939193225031093983288311
:10317000D7CF2091BB063091BC06232B41F4209180
:103180000E0130910F013093BC062093BB062091B5
:103190000C0130910D012115310541F42DB73EB7D9
:1031A0004091100150911101241B350BE091BB0699
:1031B000F091BC06E217F307A0F42E1B3F0B281773
:1031C000390778F0AC014E5F5F4F2417350748F0A0
:1031D0004E0F5F1F5093BC064093BB0681939193A3
:1031E0009FCFF0E0E0E09CCFCF93DF930097E9F032
:1031F000FC01329713821282A091BD06B091BE06E7
:10320000ED0130E020E01097A1F420813181820FA0
:10321000931F2091BB063091BC062817390709F08F
:1032200061C0F093BC06E093BB06DF91CF91089597
:10323000EA01CE17DF07E8F54A815B819E0141155F
:103240005105B1F7E901FB83EA8349915991C40F14
:10325000D51FEC17FD0761F4808191810296840FE0
:10326000951FE90199838883828193819B838A8357
:10327000F0E0E0E012968D919C9113970097B9F5DC
:103280002D913C911197CD010296820F931F2091B1
:10329000BB063091BC062817390739F6309751F52F
:1032A0001092BE061092BD06B093BC06A093BB065A
:1032B000BCCFD383C28340815181840F951FC8172F
:1032C000D90761F44E5F5F4F88819981480F591F7C
:1032D000518340838A819B819383828321153105A9
:1032E00009F0B0CFF093BE06E093BD069ECFFD017E
:1032F000DC01C0CF13821282D7CFFB01DC0104C0F6
:103300008D910190801921F441505040C8F7881BDD
:10331000990B0895FB01DC0102C001900D92415010
:103320005040D8F70895DC0101C06D9341505040E2
:10333000E0F70895FB01DC0101900D920020E1F718
:103340000895FB01DC010D900020E9F71197415031
:10335000504028F0019000200D92C9F708951C926A
:103360000895F894FFCFFFFFFFFF00E10000000089
:1033700000000000BF06800000001F1001003205A1
:10338000020007050300ED040400D7040500D6077A
:10339000060022070700C1040800F7060900C70459
:1033A0000A00C40410004C0A1100930412006304C4
:1033B0001300510414004E041500500416004F046D
:1033C000FFFF00000000CB04D404EE04F50400006D
:1033D000000000C1808100000000000000CD034813
:1033E00003EE03E3033404F203100400000000CAF8
:1033F0000A8212C50A78113B0EED0FAC0AB70E56C1
:1034000011720D930FAA0A0D0A004552524F523AFB
:103410002000696E76616C696420726573706F6EEE
:10342000736520726563656976656400696E7661AF
:103430006C696420726573706F6E73652077726952
:1034400074696E6720746F2072656720002028639E
:103450006F756E74203D20002C2076616C756520A0
:103460003D20002900696E76616C69642072657385
:10347000706F6E7365207768696C65207772697408
:10348000696E672074686520626C6F636B200069E9
:103490006E76616C696420726573706F6E736520FF
:1034A0007768696C652072656164696E672074680D
:1034B0006520626C6F636B2000696E76616C696475
:1034C00020726573706F6E73652072656164696EDA
:1034D000672072656720006E524635313432325FA4
:1034E00058584143006E524635313832325F585891
:1034F0004143006E524635323833325F006E5246D9
:1035000035323833335F006E524635323834305FEF
:1035100000556E6B6E6F776E2048574944203D20F2
:103520003078003D3D3D206E5246353220426F6F6F
:10353000746C6F616465722053657474696E67732F
:10354000205265636F76657279203D3D3D00436F83
:103550006E6E656374696E672076696120535744A7
:103560002E2E2E20004441505F434F4E4E45435473
:10357000206661696C6564004641494C4544210000
:10358000436865636B20776972696E673A205357A9
:1035900044494F3D70696E31302C20535744434CA1
:1035A0004B3D70696E392C20474E443D474E4400D8
:1035B0005265747279696E6720696E203220736576
:1035C000636F6E64732E2E2E005452414E53464547
:1035D000525F434F4E464947555245206661696CDC
:1035E0006564005357445F434F4E46494755524523
:1035F000206661696C6564004F4B0048616C7469BA
:103600006E67204350552E2E2E200053657474692A
:103610006E67732070616765205B307837463030A5
:10362000305D203D2030780045726173696E6720FF
:103630007061676520307837463030302E2E2E206E
:103640000041667465722065726173653A20307856
:103650000053554343455353212053657474696E99
:103660006773207061676520697320636C65616EA4
:103670002E004E6578742073746570733A002020B4
:10368000312E20446973636F6E6E656374205357E7
:10369000442077697265732066726F6D2074686567
:1036A0002046656174686572002020322E205072B9
:1036B000657373205245534554206F6E20746865BE
:1036C0002046656174686572002020332E20426FA9
:1036D0006F746C6F6164657220656E7465727320BF
:1036E00073657269616C20444655206D6F64650096
:1036F0002020342E2052756E3A206D616B65206655
:103700006C617368005741524E494E473A206572CA
:10371000617365206D6179206861766520666169F5
:103720006C65642C207265747279696E672E2E2E1A
:103730000041646166727569740047656E657269FF
:103740006320434D5349532D4441502041646170DF
:10375000746572003132333435360076302E3100E4
:1070000055C000006EC000006CC000006AC00000E7
:1070100068C0000066C0000064C0000062C00000DC
:1070200060C000005EC00000FCC400005AC0000048
:1070300058C0000056C0000054C0000052C00000FC
:1070400050C000005DC000004CC000004AC00000FD
:1070500048C0000046C0000044C0000042C000001C
:1070600040C000003EC000003CC000003AC000002C
:1070700038C0000036C0000034C0000032C000003C
:1070800030C000002EC000002CC000002AC000004C
:1070900028C0000026C0000024C0000022C000005C
:1070A00020C000001EC000001CC0000011241FBE34
:1070B000CFEFDAE0DEBFCDBF11E0A0E0B1E0E6E463
:1070C000FFE702C005900D92A43BB107D9F711E08C
:1070D000A4EBB1E001C01D92AD3CB107E1F74FD385
:1070E00030C78ECFF89410926F001092810081E02B
:1070F00085BF15BE47985D9A289A0C9400000895A4
:107100001F920F920FB60F9211242F938F939F937C
:10711000EF93FF9310928500109284008091B40148
:107120009091B501009741F001979093B50180933C
:10713000B401892B09F45D9A8091B6019091B70151
:10714000009741F001979093B7018093B601892B86
:1071500009F4289A8091BA019091BB01019690930D
:10716000BB018093BA01E0E0F0E0859194918F5FDC
:107170009F4F49F08091B8019091B9010196909389
:10718000B9018093B801FF91EF919F918F912F9159
:107190000F900FBE0F901F90189584E08093E90028
:1071A0000DC08091E8008B778093E80003C08EB318
:1071B000882351F08091E80082FFF9CF8091E800A8
:1071C00085FFEFCF8091F1000895982F83E08093A1
:1071D000E9008091E80085FD0DC08091E8008E7780
:1071E0008093E80003C08EB3882369F08091E800A3
:1071F00080FFF9CF9093F1005D9884E690E0909342
:10720000B5018093B40108954F925F926F927F927F
:107210008F929F92AF92BF92CF92DF92EF92FF92A6
:107220000F931F93CF93DF9384E08093E9008091C5
:10723000E80082FF57C2289884E690E09093B70157
:107240008093B601AADF182F853481F48CE49DE188
:107250009093B9018093B80107B600FCFDCFF9996E
:10726000FECF81E180935700E89503C0843519F47F
:1072700094DF8DE00DC28C34E1F38035D1F3843797
:1072800021F484E4A2DF80E003C2813611F489E5B1
:10729000FFC18134B1F481DF182F7FDF90E0880FC8
:1072A000991FAA2797FDA095BA2F312F330F20E001
:1072B000442737FD4095542F822B932BA42BB52BBD
:1072C000B8C1803711F483E5E3C1833549F4C0E0E8
:1072D000D1E089917ADF21E0C730D207D1F7D9C157
:1072E000863521F481E371DF80E3D2C1833731F445
:1072F00087E86BDF85E969DF8EE1CAC18536B9F4BD
:10730000E0E0F0E093E085E090935700E89507B661
:1073100000FCFDCF80935700E89507B600FCFDCF39
:10732000E058FF4FA0E7E030FA0771F7A2CF8237AD
:1073300039F4E1E0F0E089E0809357008491A8C13E
:10734000863439F4E0E0F0E089E0809357008491DE
:107350009FC18E3439F4E3E0F0E089E08093570078
:10736000849196C1813539F4E2E0F0E089E08093C0
:10737000570084918DC1823631F489E526DF80E0A3
:1073800024DF80E885C1823419F0873609F0E5C032
:107390001092B9011092B80100DF082FFEDEF82E1E
:1073A000FCDE682E8554823008F071C1902F80E099
:1073B000CF2DD0E0C82BD92B10926F00173609F0D3
:1073C0004BC081E180935700E895DD24CC24C39421
:1073D0003FC0E090BD01F090BE010091BF0110914F
:1073E000C001B6E46B16D9F4ED2DF0E0EE29FF29CB
:1073F000E4918E2FEADEDD2081F082E090E0A0E0D3
:10740000B0E0E80EF91E0A1F1B1FE092BD01F092CA
:10741000BE010093BF011093C001DC2418C0D80145
:10742000C701B695A7959795879575D5CEDE82E06D
:1074300090E0A0E0B0E0E80EF91E0A1F1B1FE092EA
:10744000BD01F092BE010093BF011093C0012197CE
:10745000209709F0BECF7DC08090BD019090BE0105
:10746000A090BF01B090C00196E4691609F05DC01C
:1074700083E0F40180935700E89507B600FCFDCF48
:1074800054C0F6E46F1661F5772031F1E090BD014C
:10749000F090BE010091BF011091C0017EDED82E98
:1074A000CC24852D90E08C299D29F7010C01409278
:1074B0005700E895112482E090E0A0E0B0E0E80EEB
:1074C000F91E0A1F1B1FE092BD01F092BE0100933E
:1074D000BF011093C00102C060DE582E742423C087
:1074E000E090BD01F090BE010091BF011091C0017C
:1074F00016950795F794E79450DE682FC70113D5CA
:107500008091BD019091BE01A091BF01B091C001D9
:107510000296A11DB11D8093BD019093BE01A09361
:10752000BF01B093C001219704C05524772444249F
:107530004394209709F0A5CF96E4691641F485E0BD
:10754000F40180935700E89507B600FCFDCF8DE06D
:107550003CDE82E080936F009CC0833471F4009124
:10756000BD011091BE0119DE90E021E0F8010C018F
:1075700020935700E89511247CCE833619F5E090CE
:10758000BD01F090BE010091BF011091C00105DE68
:10759000F701E16090E021E00C0120935700E895AD
:1075A000112482E090E0A0E0B0E0E80EF91E0A1F8E
:1075B0001B1FE092BD01F092BE010093BF0110932A
:1075C000C00157CE8D3661F4E091BD01F091BE014E
:1075D00085E080935700E89507B600FCFDCF49CEC3
:1075E000823551F4E091BD01F091BE0105911491F5
:1075F000812FEBDD802F4CC0843421F5E090BD015C
:10760000F090BE010091BF011091C0011695079541
:10761000F794E794C2DD682FC70185D48091BD013E
:107620009091BE01A091BF01B091C0010296A11D31
:10763000B11D8093BD019093BE01A093BF01B09393
:10764000C00117CE843609F5E090BD01F090BE016F
:107650000091BF011091C001D801C701B695A7954F
:107660009795879558D4B1DD82E090E0A0E0B0E036
:10767000E80EF91E0A1F1B1FE092BD01F092BE0129
:107680000093BF011093C00104C08B3111F08FE350
:107690009CDD83E08093E9009091E8008091E80010
:1076A0008E778093E80095FF04C010C08EB38823C6
:1076B000C9F08091E80080FFF9CF8091E8008E77D3
:1076C0008093E80003C08EB3882361F08091E800C6
:1076D00080FFF9CF84E08093E9008091E8008B7708
:1076E0008093E800DF91CF911F910F91FF90EF9071
:1076F000DF90CF90BF90AF909F908F907F906F90D2
:107700005F904F9008959091C501892F8F778132B6
:1077100049F58091C6018032A1F0813219F5913A84
:1077200009F58091E800877F8093E8008CE091E084
:1077300067E070E027D28091E8008B778093E800C3
:107740000895913279F48091E800877F8093E80072
:107750008CE091E067E070E079D28091E8008E776C
:107760008093E800089582E061EC42E0D1D083E0AC
:1077700061E842E1CDD084E060E842E1C9C01F93F6
:10778000209100081092000844B714BE88E10FB69B
:10779000F89480936000109260000FBE80E8E0E0F3
:1077A000F0E00FB6F89480936100E09361000FBEA3
:1077B00031E035BF92E095BF3F9A209A559A809369
:1077C00061001092610047985D9A289A1092890092
:1077D0008AEF8093880090936F0083E0809381000C
:1077E000859194918F5F9F4F11F03093BC01942F3E
:1077F00041FF19C0809109012817A9F08093000862
:10780000789480911301882339F08091BA01909186
:10781000BB018F5E9240C8F3F8941092000881E09B
:10782000809313010CC090FF04C08091BC01882399
:1078300051F493FF09C080910901281729F0809124
:10784000BC01882309F04EDCD4D078941092B901A1
:107850001092B8011EEF20C0D7DC4BD38091B80145
:107860009091B90181549F4110F0109213018091C1
:10787000C1019091C20101969093C2018093C10110
:10788000292F97FF03C0512F591B252F220F28178F
:1078900010F4479801C0479A809113018823E1F6BC
:1078A0008091E00081608093E0001CDC80E090E04B
:1078B0001F910895FA01923049F0933061F09130B0
:1078C000F9F484E191E022E130E01EC086E291E02B
:1078D0002EE330E019C0882329F484E691E024E007
:1078E00030E012C0813029F488E691E02EE130E0EA
:1078F0000BC0823029F488E891E02AE230E004C02D
:1079000080E090E020E030E091838083C901089519
:107910008093E9008091EB0081608093EB001092EE
:10792000ED006093EC004093ED008091EE00881F25
:107930008827881F08958091C50188238CF403C08F
:107940008EB38823B1F08091E80082FFF9CF809157
:10795000E8008B778093E80008958EB3882349F080
:107960008091E80080FFF9CF8091E8008E778093C6
:10797000E8000895EF92FF920F931F9345D04CD0EB
:1079800008ED10E0F80180818F7780838081806826
:10799000808380818F7D808319BC1EBA1092C301C1
:1079A00080EEE82EF12CF70180818B7F8083F80137
:1079B00080818160808380E060E042E0A9DFE1EEC9
:1079C000F0E080818E7F8083E2EEF0E08081816054
:1079D0008083808188608083F70180818E7F8083AF
:1079E000F8018081806180831F910F91FF90EF905B
:1079F0000895E7EDF0E08081816080838AE482BFB2
:107A000081E08093C401B6CFE8EDF0E080818E7F05
:107A100080831092E20008951092DA001092E10043
:107A200008951F920F920FB60F9211242F933F9338
:107A30004F935F936F937F938F939F93AF93BF9376
:107A4000EF93FF938091DA0080FF1BC08091D800F4
:107A500080FF17C08091DA008E7F8093DA008091DA
:107A6000D90080FF0BC080E189BD82E189BD09B4E6
:107A700000FEFDCF81E08EBB3BD203C019BC1EBA15
:107A800037D28091E10080FF17C08091E20080FF33
:107A900013C08091E2008E7F8093E2008091E2002B
:107AA00080618093E2008091D80080628093D8004A
:107AB00019BC85E08EBB1CD28091E10084FF2CC0F4
:107AC0008091E20084FF28C080E189BD82E189BD08
:107AD00009B400FEFDCF8091D8008F7D8093D8003F
:107AE0008091E1008F7E8093E1008091E2008F7EA3
:107AF0008093E2008091E20081608093E2008091B7
:107B0000C301882331F48091E30087FD02C081E046
:107B100001C084E08EBBECD18091E10083FF21C0E5
:107B20008091E20083FF1DC08091E100877F8093F8
:107B3000E10082E08EBB1092C3018091E1008E7F54
:107B40008093E1008091E2008E7F8093E20080913B
:107B5000E20080618093E20080E060E042E0D8DEF5
:107B6000C7D1FF91EF91BF91AF919F918F917F917D
:107B70006F915F914F913F912F910F900FBE0F909A
:107B80001F9018959C014091CB015091CC01461754
:107B9000570718F4F90190E044C06115710511F020
:107BA000AB01F8CF8091E8008E778093E80040E049
:107BB00050E0F0CF8EB3882309F444C0853009F437
:107BC00043C08091E80083FF02C081E00895809166
:107BD000E80082FD31C08091E80080FF22C08091E2
:107BE000F3009091F200782F60E0292F30E0262BEF
:107BF000372B07C081918093F100415050402F5F97
:107C00003F4F4115510519F02830310598F390E0A8
:107C10002830310509F491E08091E8008E77809357
:107C2000E8004115510531F6992321F605C08EB3C0
:107C3000882341F0853041F08091E80082FFF7CF42
:107C400080E0089582E0089583E008959C01611525
:107C5000710529F48091E8008B778093E800F901A1
:107C600026C08EB3882391F1853091F18091E80090
:107C700083FF02C081E008958091E80082FFF1CF88
:107C800006C08091F10081936150704059F02091BD
:107C9000F3008091F200322F20E090E0822B932BB2
:107CA000892B79F78091E8008B778093E800611544
:107CB0007105B9F605C08EB3882341F0853041F0D7
:107CC0008091E80080FFF7CF80E0089582E008957A
:107CD00083E008950F931F93DF93CF9300D0CDB728
:107CE000DEB7E5ECF1E08091F100819381E0ED3CBD
:107CF000F807C9F708DD8091E80083FFE4C08091B0
:107D0000C5019091C601953009F46DC0963040F4DC
:107D1000913081F1913070F0933009F0D4C02AC0D5
:107D2000983009F4A3C0993009F4B2C0963009F034
:107D3000CAC07CC0803809F4C6C0823809F0C3C00C
:107D40008091C90187708093E9008091EB001092C7
:107D5000E9002091E800277F2093E80090E025E0EB
:107D6000969587952A95E1F781708093F10010929E
:107D7000F10087C0882319F0823009F0A4C08F7108
:107D8000823009F0A0C08091C701882331F520918D
:107D9000C901277009F497C02093E9008091EB0096
:107DA00080FF1BC0933021F48091EB00806213C0F0
:107DB0008091EB0080618093EB0081E090E002C055
:107DC000880F991F2A95E2F78093EA001092EA0043
:107DD0008091EB0088608093EB001092E900809125
:107DE000E800877F51C0882309F06DC01091C7015A
:107DF0001F770FB7F8948091E800877F8093E800A1
:107E00009ADD8091E80080FFFCCF8091E3008078CC
:107E1000812B8093E30080688093E300112311F4A9
:107E200082E001C083E08EBB0FBF4DC0805882301E
:107E300008F049C08091C7019091C8016091C901C3
:107E4000AE014F5F5F4F36DDBC01009709F43BC0C8
:107E50008091E800877F8093E80089819A8192DE93
:107E60008091E8008B778093E8002DC0803859F529
:107E70008091E800877F8093E8008091C301809320
:107E8000F1008091E8008E778093E80054DD1BC0FC
:107E90008823C9F49091C7019230A8F48091E8003A
:107EA000877F8093E8009093C30145DD8091C301F3
:107EB000882331F48091E30087FD02C081E001C096
:107EC00084E08EBB50DC8091E80083FF0AC0809183
:107ED000EB0080628093EB008091E800877F8093C5
:107EE000E8000F900F90CF91DF911F910F910895AF
:107EF00008951F938EB3882361F01091E9001092CA
:107F0000E9008091E80083FF01C0E4DE1770109360
:107F1000E9001F910895F999FECF92BD81BDF89AAD
:107F2000992780B50895262FF999FECF1FBA92BDE3
:107F300081BD20BD0FB6F894FA9AF99A0FBE01964A
:107F40000895F894FFCF4341544552494E4100777C
:107F500000080000000000000801120110010200EA
:107F600000084F1B059201000201000109023E00BA
:107F70000201008032090400000102020100052410
:107F800000100104240204052406000107058203F1
:107F90000800FF09040100020A00000007050402AE
:107FA00010000107058302100001040309041E03E9
:107FB000500072006F0020004D00690063007200E5
:107FC0006F002000350056002000200000002A032A
:107FD00053007000610072006B00460075006E0077
:107FE000200045006C0065006300740072006F00A3
:0A7FF0006E006900630073000000DA
:00000001FF
