:020000022000DC
:1060000000000120456302008563020087630200EF
:10601000896302008B6302008D63020000000000B0
:10602000000000000000000000000000D98F020006
:106030009163020000000000F98F020095630200E6
:106040009763020097630200557002009763020095
:106050009763020097630200976302009763020050
:106060009763020097630200976302009763020040
:106070009763020097630200976302009763020030
:1060800097630200318D020097630200976302005C
:106090009763020097630200976302009763020010
:1060A0009763020097630200976302009763020000
:1060B00097630200976302000000000000000000E8
:1060C00097630200976302009763020097630200E0
:1060D00097630200976302009763020000000000CC
:1060E00000000000000000000000000000000000B0
:1060F00000000000000000000000000000000000A0
:10610000000000000000000000000000000000008F
:10611000000000000000000000000000000000007F
:10612000000000000000000000000000000000006F
:10613000000000000000000000000000000000005F
:10614000000000000000000000000000000000004F
:10615000000000000000000000000000000000003F
:10616000000000000000000000000000000000002F
:10617000000000000000000000000000000000001F
:10618000000000000000000000000000000000000F
:1061900000000000000000000000000000000000FF
:1061A00000000000000000000000000000000000EF
:1061B00000000000000000000000000000000000DF
:1061C00000000000000000000000000000000000CF
:1061D00000000000000000000000000000000000BF
:1061E00000000000000000000000000000000000AF
:1061F000000000000000000000000000000000009F
:10620000F1EE103A43F08073E1EE103A704700BFB0
:1062100010B5054C237833B9044B13B10448AFF3E0
:1062200000800123237010BD583E002000000000B4
:10623000E89E020008B5034B1BB103490348AFF3C6
:10624000008008BD000000005C3E0020E89E0200C7
:10625000154B002B08BF134B9D46A3F5803A002138
:106260008B460F461348144A121A03F015FB0F4BC6
:10627000002B00D098470E4B002B00D098470020F1
:10628000002104000D000D48002802D00C4803F046
:10629000E1FB02F079FF2000290000F0A7F802F0EE
:1062A00063FF00BF000008000000012000000000A4
:1062B00000000000583E00207C490020559A020052
:1062C000619A02004FF0A0430322C3F844277047AD
:1062D000F0B40D480D4D0E4CDFF838C000234FF0E0
:1062E000A0474FF40036013305FB03F2B4EBF20F85
:1062F00000FB03F102D3C7F80C65F4E7BCEBB10F68
:10630000F1D3C7F80865EEE7295C8FC2D578E92696
:1063100037894100285C8F02FFF7D4BFFFF7D8BF51
:1063200008B50121112000F021FB112000F0B6FB7F
:106330001320012100F01AFBBDE80840132000F0F3
:10634000ADBB00BF0A490B4A0B4B9B1A03DD043B54
:10635000C858D050FBDC094809494FF0AD32026003
:1063600004300439FBD100F06FF8FFF771FF000033
:10637000F49E020000360020583E002000F8002065
:1063800000080000FEE7FEE7FEE7FEE7FEE7FEE7A7
:10639000FEE7FEE7FEE7FEE708B5FFF7BDFF114B9E
:1063A000BBB1114B63B1FFF7B9FF00F011FA00F078
:1063B00041FEFFF7B3FF00F00BFA00F03BFEF2E7FF
:1063C000FFF7ACFF00F004FAFFF7A8FF00F000FAB7
:1063D000F6E7FFF7A3FF00F0FBF9FFF79FFF00F0E0
:1063E000F7F9F6E7000000003570020000B583B051
:1063F00000F082FAFFF794FF0E4B019301230E4940
:1064000000934FF4806200230C4801F07BFD4FF4B1
:10641000407000F04DFA01F0EDFDBFF34F8F0849D9
:10642000084BCA6802F4E0621343CB60BFF34F8F9E
:1064300000BFFDE7743E0020809E020099630200C9
:1064400000ED00E00400FA05914B1B6830B45D1CC0
:1064500000F0F5808F4A1268062B00F0E5808E4B25
:106460001B78062B00F0CF80894B1B685C1C00F06A
:10647000C380884A1268062B00F0B380864B1B78D5
:10648000062B00F09B80824B1B68581C00F08F800D
:10649000804A1268062B7CD07F4B1B78062B5AD083
:1064A0007B4B1B68591C1ED07A4A062B11680FD0F3
:1064B0007A4AD2F8883043F47003C2F88830BFF3C8
:1064C0004F8FBFF36F8F764B764A1A6030BC7047A0
:1064D000CA1E032A40F212810339032940F2B68012
:1064E0006C4B1B68C2E06C496F4A09781268062938
:1064F000C2F30312DCD1033A032A40F2FF80664A5A
:10650000694B12781B68062AC3F30313D0D1033BEF
:10651000032B40F29B80604A634B12781B68062A6B
:10652000C3F3031308BF4FF0FF32C1D1033B032B6A
:1065300040F2A280574B1B68062AB9D1033B032BBC
:10654000B6D85A4AD35C002BB2D0594A136843F4E8
:1065500080631360ACE7544B1B68C3F30313033B26
:10656000032B9DD8534AD25C12B1534A03211160C8
:10657000524AD35C002B93D0514A524C5249534B50
:1065800005201060012500203F22256008601A6068
:1065900086E7033A032A3FF67FAF4FF0804300229D
:1065A000C3F80C21C3F81021C3F8382574E73E4A1C
:1065B000394B12681B78C2F303126BE73A4B1B6826
:1065C000C3F30313033B032B3FF65DAF404AD35C99
:1065D000002B3FF458AF3F4AD36823F08073D36059
:1065E00051E7033A032A3FF649AF3B4B3B4A1B684E
:1065F000C3F34233136041E72B4A274B12681B78E1
:10660000C2F3031237E7284B1B68C3F30313033BA2
:10661000032B3FF629AF324AD35C002B3FF424AF63
:10662000304B314A1A601FE7033A032A3FF617AF8F
:106630002E4B2F4A1B68C3F3042313600FE71A4A3B
:10664000154B12681B78C2F3031205E7294B104A59
:106650001B681268284903F04F030B60531C3FF47A
:106660005AAF0C4B062A1B687FF422AF033B032B67
:106670004FF006023FF65EAF4FF08041D1F8003494
:1066800013F0010F034B40F093801B6854E700BFE9
:106690003001001034010010E00F00F000ED00E0C8
:1066A000003600200090D003E80F00F08C9E02001E
:1066B0003C170040909E0200A0050040909E020002
:1066C00010560040885600401856004014560040AE
:1066D000909E0200F0ED00E0440200103C050040F6
:1066E000909E020074C007400DF0ADBA2403001064
:1066F0004035014058020010E40E004030498A5CE9
:10670000002A48D04FF080532E4AD3F80414C2F820
:106710002015D3F80814C2F82415D3F80C14C2F8C5
:106720002815D3F81014C2F82C15D3F81414C2F895
:106730003015D3F81814C2F83415D3F81C14C2F865
:106740004015D3F82014C2F84415D3F82414C2F825
:106750004815D3F82814C2F84C15D3F82C14C2F8F5
:106760005015D3F83014C2F85415D3F83414C2F8C5
:106770006015D3F83814C2F86415D3F83C14C2F885
:106780006815D3F840141048C2F86C15D3F84414B7
:106790000368C2F870155A1C3FF4B1AE0B4A062BC1
:1067A00011687FF485AE033903293FF699AE4DE7B2
:1067B000054A1B6812686FF00100C1F80004BBE6CF
:1067C000889E020000C0004030010010340100101B
:1067D000044B4FF080525A6040BFBFF34F8FBFF35E
:1067E0006F8F704700ED00E0704700BF704700BF3B
:1067F000044B036010B46423034C0C605DF8044B3D
:1068000013607047783E0020CC3E0020054B0360AB
:1068100010B44FF48073044C0C605DF8044B1360AB
:10682000704700BF5C400020B040002070B51F4D95
:1068300084B028684FF0FF3203A900F0E1FE002881
:10684000F7D0039C237A6668052B0CD8DFE803F0A9
:106850002629211B1403D4E90523D4E90301E469A3
:106860000094B047039C206810B100F03FFC039CEB
:10687000204600F03BFCDCE7D4E90523D4E9030122
:10688000B047039CEFE7D4E90412E068B047039CEB
:10689000E9E7D4E90301B047039CE4E7B047039C70
:1068A000E1E7E068B047039CDDE700BFB4440020A7
:1068B00070B540230B4D82B00446002218460421D7
:1068C0002B6000F07BFC084D084B01930646022329
:1068D000009307492E60A2B20023064801F012FB84
:1068E00002B070BDB0440020B4440020B844002081
:1068F000949E02002D6802004FF08043174AD3F89F
:106900000014174830B41160D3F80054D3F80024B1
:10691000144C15492A43C3F80024D4F840250260DA
:1069200001224FF40030C3F818259A60C1F88000A6
:10693000BFF34F8FBFF36F8F4FF0A04003F5883345
:106940004FF480314FF0FF34C3F84813C3F80813F5
:106950005A609A60C0F8084530BC7047BC440020BB
:10696000C044002000A0004000E100E01F2816D82D
:10697000474B53F820300E2911D8DFE801F0817918
:106980007169615950473E352C231A11080003F5EF
:10699000E0734FF0A04240F2037142F823107047B9
:1069A00003F5E0734FF0A04240F2036142F8231078
:1069B000704703F5E0734FF0A04240F2035142F8F4
:1069C0002310704703F5E0734FF0A04240F20341FB
:1069D00042F82310704703F5E0734FF0A04240F2F5
:1069E000033142F82310704703F5E0734FF0A042E3
:1069F00040F2032142F82310704703F5E0734FF093
:106A0000A04240F2031142F82310704703F5E073EF
:106A10004FF0A0424FF4403142F82310704703F585
:106A2000E0734FF0A0424FF4003142F8231070475A
:106A300003F5E0734FF0A042164942F82310704767
:106A400003F5E0734FF0A042134942F8231070475A
:106A500003F5E0734FF0A042042142F82310704781
:106A600003F5E0734FF0A0420C2142F82310704769
:106A700003F5E0734FF0A042032142F82310704762
:106A800003F5E0734FF0A042002142F82310704755
:106A9000009E0200040002000C0003001F2808D81A
:106AA000044B53F820104FF0A04201238B40C2F852
:106AB0000C357047009E020090F8A300704700BF9D
:106AC00038B590F99D30002B04460DDB5A0920485B
:106AD0002032012103F01F0301FA03F340F82230B2
:106AE000BFF34F8FBFF36F8F2369002101224FF453
:106AF0008870C3F80803C3F84411C3F858115A60EA
:106B0000DA6002E0FFF764FE2369D3F85821002A17
:106B1000F8D0D3F84421002AF4D04FF0FF320025FA
:106B2000C3F8005504F11400C3F80C25C3F814256C
:106B3000C3F80825C3F8102502F0AAFAD4F8A40077
:106B400001F042F8C4F8A45084F8A35038BD00BF47
:106B500000E100E0143002F0ADBA00BF143002F0E2
:106B6000AFBA00BF143002F097BA00BF08B5D0F832
:106B7000A40001F01DF8002814BF4020002008BD2B
:106B800090F8A33003B9704710B54FF0FF310446B9
:106B9000D0F8A40000F090FE0023D4F8A4001A4618
:106BA000BDE81040194600F04BBB00BF10B50368AC
:106BB0000F4A5B6882B093428DF8071012D10446E9
:106BC0004FF0FF31D0F8A40000F076FE9DF80730BA
:106BD00084F85D30226901231846C2F84835936075
:106BE00002B010BD01220DF10701984702B010BD9F
:106BF000F56B02002DE9F04716460AB307468846B2
:106C000000F15D0A00254FF00109741B402C28BFDC
:106C100040244FF0FF31D7F8A40000F04DFE08EB00
:106C200005012246504602F09DFD25443B69AE42D7
:106C3000C3F84845C3F80890E7D82846BDE8F08770
:106C400015462846BDE8F087036870B51B6A744D89
:106C5000AB4240F0AE800A4690F8A31004460029EB
:106C600040F09F80036990F89F00C3F80C0594F8EA
:106C70009E00C3F8140594F8A200012800F09D803E
:106C8000C3F86C15B2F5966F45D9B2F5166F40F2A0
:106C90009F80B2F5965F40F29E80B2F5165F40F29B
:106CA0009C80B2F5615F40F29A80B2F5964F40F257
:106CB0009880B2F5E14F40F2968047F612218A4261
:106CC00040F29380B2F5164F40F292804DF6C0210B
:106CD0008A4240F29080B2F5614F40F28F80B2F567
:106CE000963F40F28E80B2F5E13F40F28C80B2F5E3
:106CF000613F40F28B804B498A4240F28D80B2F571
:106D0000E12F40F28680B2F5612F94BF4FF07062A0
:106D10004FF0805201E04FF49E2294F99D00C3F899
:106D20002425082104F15D020025C3F80015002880
:106D3000C3F8442504F15C01C3F820514FF001026F
:106D40004FF48875C3F83415C3F838251A60C3F8B2
:106D5000045327DB344D410900F01F062B18603126
:106D6000B240602045F8212083F8000394F99D305B
:106D7000002B07DB2C4903F01F0001225B09824036
:106D800041F8232003220021012000F017FA0023FC
:106D90001A461946C4F8A40000F052FA012384F8F8
:106DA000A33070BD214A00F00F031A44602313760C
:106DB000DCE7BDE870400022184794F8A010C3F843
:106DC000101594F8A110C3F80815C3F86C0559E71D
:106DD0004FF41D22A1E7164A9FE7164A9DE7164A7F
:106DE0009BE7164A99E7164A97E74FF4000294E7A3
:106DF0004FF41D0291E74FF465028EE74FF46B02EA
:106E00008BE7104A89E74FF0EB7286E74FF06C7220
:106E100083E74FF0E86280E74FF080627DE700BFD4
:106E2000496E020090D0030000E100E0FCEC00E0BD
:106E300000B013000050270000F03A0000A04E0000
:106E400000C0750000903A0190F8A330002B40F08C
:106E5000B08070B50369044690F89F00C3F80C0534
:106E600094F89E00C3F8140594F8A20001284AD0B3
:106E7000B1F5966FC3F86C2554D9B1F5166F40F291
:106E8000A080B1F5965F40F29F80B1F5165F40F2A9
:106E90009D80B1F5615F40F29B80B1F5964F40F265
:106EA0009980B1F5E14F40F2978047F61222914266
:106EB00040F29480B1F5164F40F293804DF6C02217
:106EC000914240F29180B1F5614F40F29080B1F56E
:106ED000963F40F28F80B1F5E13F40F28D80B1F5F1
:106EE000613F40F28C804A4A914240F28E80B1F577
:106EF000E12F40F28780B1F5612F94BF4FF07062AF
:106F00004FF0805210E094F8A000C3F8100594F8F8
:106F1000A100C3F8080542F00102B1F5966FC3F86D
:106F20006C25AAD84FF49E2294F99D00C3F824251D
:106F3000082104F15D020025C3F800150028C3F8FC
:106F4000442504F15C01C3F820514FF001024FF4D5
:106F50008875C3F83415C3F838251A60C3F804538C
:106F600028DB2C4D410900F01F062B186031B24080
:106F7000602045F8212083F8000394F99D30002B10
:106F800007DB244903F01F0001225B09824041F81E
:106F9000232003220021012000F010F900231A46CB
:106FA0001946C4F8A40000F04BF9012384F8A3307B
:106FB00070BD7047184A00F00F031A44602313761F
:106FC000DBE74FF41D22AFE7144AADE7144AABE705
:106FD000144AA9E7144AA7E7144AA5E74FF40002A8
:106FE000A2E74FF41D029FE74FF465029CE74FF4C0
:106FF0006B0299E70E4A97E74FF0EB7294E74FF078
:107000006C7291E74FF0E8628EE74FF080628BE799
:1070100090D0030000E100E0FCEC00E000B01300C1
:107020000050270000F03A0000A04E0000C075009C
:1070300000903A0108B5054B1BB1054802F03AF83B
:1070400000B908BDAFF3008008BD00BF000000001C
:10705000D844002010B5114C2369D3F810213AB15F
:107060000022C3F81021D3F83C2572B901221A601E
:10707000D3F8202102B910BD0021D4F8A400C3F830
:107080002011BDE8104000F08BBA94F85C1004F1B8
:10709000140001F0EFFF2369E8E700BFC4440020BB
:1070A00038B50E4C0E4A20464FF47A73002540F84E
:1070B000142BC4E9015301F0D1FF0A4B0A481A6AA4
:1070C0009B6984F89F300221A4F8A250C4F8A45010
:1070D000206184F89D1084F89E2038BDC4440020AF
:1070E000A89E0200009E02000020004010B5044649
:1070F00001F040FB02280AD144B100F0E1FF204634
:1071000002F06EF8BDE8104001F08AB810BD2046CC
:10711000BDE8104002F064B810B582B0019000F0F4
:10712000CFFF019802F054F8044601F079F814B149
:10713000204602B010BDFFF759FB204602B010BD3B
:1071400050B110B5044600F0BBFF204602F048F8ED
:10715000BDE8104001F064B8704700BF38B51C4668
:107160009DF8105043B3002908BF1A460123C4E913
:107170000F01226084F8463001F0C2FDD4E90F13FC
:107180002268A26001FB03F1CB1A134400200A44D9
:10719000FF21A063E36084F84410626084F8451026
:1071A00004F1100001F094FF04F1240001F090FFBD
:1071B00001F0B0FD84F84C50204638BDF8B50646C5
:1071C00017460D4669B100FB01F05030FFF7A4FFF0
:1071D000044690B3002200F1500380F8462003607B
:1071E00007E05020FFF798FF044630B384F846507C
:1071F0002460C4E90F6501F083FDD4E90F13226810
:10720000A26001FB03F1CB1A134400200A44FF21C2
:10721000A063E36084F84410626084F8451004F1D0
:10722000100001F055FF04F1240001F051FF01F0BE
:1072300071FD84F84C702046F8BD00242046F8BD4E
:107240002DE9F047044684B01F460192884600F1BC
:10725000240601F055FDA26BE36BDFF840939A42E0
:107260004FF0000A7CD3022F00F0E880019D002D32
:1072700000F0128102ADBAF1000F00F0DB8001F0E6
:1072800049FD00F01DFF01F03BFD94F84430FF2B59
:1072900004BF002384F8443094F84530FF2B04BF2A
:1072A000002384F8453001F035FD284601A901F09E
:1072B0000BFA002840F0F68001F022FDA26BE36B90
:1072C0009A4261D001F026FD01F01AFD94F8455074
:1072D0006DB2002D05DC12E06B1E13F0FF0F5DB2E6
:1072E0000DD0636A304653B101F090F90028F3D015
:1072F00001F01EFA6B1E13F0FF0F5DB2F1D1FF23F8
:1073000084F8453001F006FD01F0FAFC94F8445091
:107310006DB2002D15DD04F1100A04E06B1E13F0B0
:10732000FF0F5DB20DD02369504653B101F06EF9E5
:107330000028F3D001F0FCF96B1E13F0FF0F5DB2D3
:10734000F1D1FF2384F8443001F0E4FC00F068FF41
:1073500001F0D6FCA26BE36B9A424FF0010A82D295
:10736000226CA56B002A40F0E7802668002E00F012
:10737000F9800135A563636A002B7CD101F0CAFC5A
:10738000012004B0BDE8F08704F1100A01F0C2FC4E
:107390000199504601F0BEF801F0B2FC94F8455056
:1073A0006DB2002D05DC12E06B1E13F0FF0F5DB215
:1073B0000DD0636A304653B101F028F90028F3D0AC
:1073C00001F0B6F96B1E13F0FF0F5DB2F1D1FF2390
:1073D00084F8453001F09EFC01F092FC94F8445092
:1073E0006DB2002D05DC12E06B1E13F0FF0F5DB2D5
:1073F0000DD02369504653B101F008F90028F3D0AD
:1074000001F096F96B1E13F0FF0F5DB2F1D1FF236F
:1074100084F8443001F07EFC00F002FF002897D190
:107420004FF08053C9F8043040BFBFF34F8FBFF314
:107430006F8F8DE7284601F03BF920E7226CA56BA2
:10744000002A92D04146E06802F08CF9226CE36891
:1074500021689B1A8B42E360C2F1000204D2636888
:107460001A44E260022F84D1002D83D10123A3634B
:10747000636A002B82D004F1240001F0C7F80028D1
:107480003FF47CAF454B4FF080525A6040BFBFF392
:107490004F8FBFF36F8F71E701F03CFC284604B0BB
:1074A000BDE8F08701F02CFC94F845506DB2002D3A
:1074B00015DD04F1240604E06B1E13F0FF0F5DB22E
:1074C0000DD0636A304653B101F0A0F80028F3D024
:1074D00001F02EF96B1E13F0FF0F5DB2F1D1FF2307
:1074E00084F8453001F016FC01F00AFC94F8445091
:1074F0006DB2002D15DD04F1100604E06B1E13F0D3
:10750000FF0F5DB20DD02369304653B101F07EF814
:107510000028F3D001F00CF96B1E13F0FF0F5DB2E1
:10752000F1D1FF2384F8443001F0F4FB00F078FE41
:10753000002004B0BDE8F087414607BBA06802F018
:1075400011F9A368216C62680B449342A360FFF4B5
:1075500010AF0135A563636A2268A260002B3FF477
:107560000DAF88E76068013501F05AF9A563636AD9
:107570006660002B7FF47FAF002883D1FEE6E068D1
:1075800002F0F0F8226CE36821689B1A8B42E360FA
:10759000C2F10002BFF466AF61E700BF00ED00E09A
:1075A00010B582B0EFF31184402383F31188836B0D
:1075B000C26B9A420FD990F845200133FF2A8363AA
:1075C00053B20DD001335BB280F84530012084F313
:1075D000118802B010BD002084F3118802B010BDE4
:1075E000436A002BF2D02430019101F00FF80028FB
:1075F000ECD001990029E9D001200860ECE700BF38
:107600002DE9F043044685B00F46019201F078FB66
:10761000A56B002D40F02781019B002B00F0D2804C
:1076200002A801F045F8DFF88C8204F1240601F08D
:1076300071FB00F045FD01F063FB94F84430FF2B33
:1076400004BF002384F8443094F84530FF2B04BF76
:10765000002384F8453001F05DFB01A902A801F088
:1076600033F800285BD101F04BFBA36B002B40F0FB
:10767000AF8001F04FFB0199304600F04BFF01F065
:107680003FFB94F845506DB2002D05DC12E06B1EF7
:1076900013F0FF0F5DB20DD0636A304653B100F0B6
:1076A000B5FF0028F3D001F043F86B1E13F0FF0F75
:1076B0005DB2F1D1FF2384F8453001F02BFB01F0DE
:1076C0001FFB94F844506DB2002D15DD04F1100934
:1076D00004E06B1E13F0FF0F5DB20DD02369484626
:1076E00053B100F093FF0028F3D001F021F86B1E96
:1076F00013F0FF0F5DB2F1D1FF2384F8443001F0A5
:1077000009FB00F08DFD002853D14FF08053C8F8DD
:10771000043040BFBFF34F8FBFF36F8F49E001F0DC
:10772000EFFA94F845506DB2002D05DC12E06B1EA7
:1077300013F0FF0F5DB20DD0636A304653B100F015
:1077400065FF0028F3D000F0F3FF6B1E13F0FF0F6E
:107750005DB2F1D1FF2384F8453001F0DBFA01F08E
:10776000CFFA94F844506DB2002D15DD04F11009E4
:1077700004E06B1E13F0FF0F5DB20DD02369484685
:1077800053B100F043FF0028F3D000F0D1FF6B1E8F
:1077900013F0FF0F5DB2F1D1FF2384F8443001F004
:1077A000B9FA00F03DFD01F0ABFAA36B53B101F063
:1077B000B1FA01F0A5FAA56B002D54D1019B002B65
:1077C0007FF435AF01F0A6FA002005B0BDE8F083E4
:1077D00001F0A0FA01F094FA94F845506DB2002D32
:1077E00005DC12E06B1E13F0FF0F5DB20DD0636A73
:1077F000304653B100F00AFF0028F3D000F098FFA4
:107800006B1E13F0FF0F5DB2F1D1FF2384F84530FA
:1078100001F080FA01F074FA94F844506DB2002D32
:1078200015DD04F1100904E06B1E13F0FF0F5DB2CB
:107830000DD02369484653B100F0E8FE0028F3D08C
:1078400000F076FF6B1E13F0FF0F5DB2F1D1FF2346
:1078500084F8443001F05EFA00F0E2FC01F050FAE6
:10786000A56B002DAAD0226C52B1E1686368114467
:107870009942E16024BF2168E160384601F072FF5F
:10788000013DA56323692BB901F044FA012005B03D
:10789000BDE8F08304F1100000F0B8FE0028F3D03A
:1078A000044B4FF080525A6040BFBFF34F8FBFF37D
:1078B0006F8FE9E700ED00E02DE9F043044685B065
:1078C00000F12406019101F01BFAA36BDFF8DC82C2
:1078D0000027B946002B40F0D780019D002D00F015
:1078E000418102ADB9F1000F00F0DE8001F012FA23
:1078F00000F0E6FB01F004FA94F84430FF2B04BFDB
:10790000002384F8443094F84530FF2B04BF002353
:1079100084F8453001F0FEF9284601A900F0D4FEB4
:1079200000285FD101F0ECF9A36B002B40F0C88078
:1079300001F0F0F92368002B00F01B81019930461B
:1079400000F0E8FD01F0DCF994F845506DB2002D2F
:1079500005DC12E06B1E13F0FF0F5DB20DD0636A01
:10796000304653B100F052FE0028F3D000F0E0FEA4
:107970006B1E13F0FF0F5DB2F1D1FF2384F8453089
:1079800001F0C8F901F0BCF994F844506DB2002D33
:1079900015DD04F1100904E06B1E13F0FF0F5DB25A
:1079A0000DD02369484653B100F030FE0028F3D0D3
:1079B00000F0BEFE6B1E13F0FF0F5DB2F1D1FF238E
:1079C00084F8443001F0A6F900F02AFC002853D1D5
:1079D0004FF08053C8F8043040BFBFF34F8FBFF360
:1079E0006F8F49E001F08CF994F845506DB2002D8D
:1079F00005DC12E06B1E13F0FF0F5DB20DD0636A61
:107A0000304653B100F002FE0028F3D000F090FEA3
:107A10006B1E13F0FF0F5DB2F1D1FF2384F84530E8
:107A200001F078F901F06CF994F844506DB2002D32
:107A300015DD04F1100904E06B1E13F0FF0F5DB2B9
:107A40000DD02369484653B100F0E0FD0028F3D083
:107A500000F06EFE6B1E13F0FF0F5DB2F1D1FF233D
:107A600084F8443001F056F900F0DAFB01F048F9EF
:107A7000A36BEBB101F04EF901F042F9A36B4FF0AB
:107A80000109002B3FF429AF2268013BA363002AC0
:107A900000F088802369002B74D101F03BF90127A5
:107AA000384605B0BDE8F083284600F001FE1DE72A
:107AB00001F030F9002F4AD1384605B0BDE8F08317
:107AC00001F028F901F01CF994F845506DB2002D31
:107AD00005DC12E06B1E13F0FF0F5DB20DD0636A80
:107AE000304653B100F092FD0028F3D000F020FEA4
:107AF0006B1E13F0FF0F5DB2F1D1FF2384F8453008
:107B000001F008F901F0FCF894F844506DB2002D32
:107B100015DD04F1100904E06B1E13F0FF0F5DB2D8
:107B20000DD02369484653B100F070FD0028F3D012
:107B300000F0FEFD6B1E13F0FF0F5DB2F1D1FF23CD
:107B400084F8443001F0E6F800F06AFB94E701F0B5
:107B5000D7F8616A19B1236B1968C1F10501606832
:107B600000F08EFE01F0D6F80027384605B0BDE8DB
:107B7000F08301F0C5F8606800F00CFE074601F0E4
:107B8000C9F8DBE604F1100000F040FD002884D0C5
:107B9000064B4FF080525A6040BFBFF34F8FBFF388
:107BA0006F8F7AE700F0A6FE606073E700ED00E0FB
:107BB00010B5044682B001F0A3F8A06B019001F06B
:107BC000A9F8019802B010BD104B5A68904208D035
:107BD000DA68904208BF012204D090F8463093B191
:107BE00070470022002110B403EBC20443F83210A6
:107BF00090F84630616013B15DF8044B70475DF852
:107C0000044BFFF79DBAFFF79BBA00BF4449002021
:107C1000074B1A681AB19A6802B17047012210B472
:107C200003EBC20443F8321060605DF8044B704708
:107C30004449002070B504460E46154601F060F830
:107C400094F84430FF2B04BF002384F8443094F8A8
:107C50004530FF2B04BF002384F8453001F05AF86B
:107C6000A36B002B45D001F04BF894F845506DB252
:107C7000002D15DD04F1240604E06B1E13F0FF0F48
:107C80005DB20DD0636A304653B100F0BFFC0028EE
:107C9000F3D000F04DFD6B1E13F0FF0F5DB2F1D17C
:107CA000FF2384F8453001F035F801F029F894F805
:107CB00044506DB2002D15DD04F1100604E06B1E7A
:107CC00013F0FF0F5DB20DD02369304653B100F0C1
:107CD0009DFC0028F3D000F02BFD6B1E13F0FF0F6E
:107CE0005DB2F1D1FF2384F84430BDE8704001F06B
:107CF00011B82A46314604F1240000F047FCB2E7EF
:107D00002DE9F041044600F0FBFF344A344D13687E
:107D1000013313602B68002B30D0324E336833B3FD
:107D2000E36A3148314907680A689F4238BF0360F7
:107D30002F48013203EB83030A6000EB8300E26308
:107D4000211D01F0D5F900F0E5FF33686BB12A6819
:107D5000E36AD26A9A4208D2264B4FF080525A60A8
:107D600040BFBFF34F8FBFF36F8FBDE8F0812A682C
:107D7000E36AD26A9A4298BF2C60D2E72C601368FB
:107D8000012B02D0E36A174ECBE71948DFF8908049
:107D9000194F144E01F09CF9184801F099F9184850
:107DA00001F096F9174801F093F9174801F090F99E
:107DB000404601F08DF9384601F08AF9134801F088
:107DC00087F9134801F084F9124801F081F9124B48
:107DD000124AC2F800801F60E36AA2E7DC45002077
:107DE0006C4500203C460020F0450020EC4500207A
:107DF0007845002000ED00E0084600208C4500207A
:107E0000A0450020B4450020C84500202846002099
:107E10005446002040460020744500207045002054
:107E2000F44500202DE9F843DDE909C4002C66D0B3
:107E3000BCF1000F60D00D469600984602233246F2
:107E400084F85130A5210746C4F830C0604601F0DF
:107E500023FD2A7884F83420236B2978321F1A44B2
:107E600022F0070601B36B7884F835306B78DBB10C
:107E7000AB7884F83630AB78B3B1EB7884F8373030
:107E8000EB788BB12B7984F838302B7963B16B792F
:107E900084F839306B793BB1AB7984F83A30AB79FF
:107EA00013B1EB7984F83B30089D042D28BF0425DD
:107EB0004FF00009E5626564201D84F83B90C4F82A
:107EC000489001F011F9C5F1050504F1180001F021
:107ED0000BF9C4F84C9042463946A561246184F8F8
:107EE00050906462304600F0CFFE20602046FFF7DD
:107EF00007FF2046BDE8F8836046BDE8F8832046CA
:107F0000BDE8F8832DE9F0479600804630460D46DF
:107F10009946FFF701F9002862D007465420FFF781
:107F2000FBF8044600285FD000230763324684F83C
:107F300051303846A52101F0AFFC2B7884F834305D
:107F40002B78D4F830A003B36B7884F835306B7895
:107F5000DBB1AB7884F83630AB78B3B1EB7884F82A
:107F60003730EB788BB12B7984F838302B7963B1CB
:107F70006B7984F839306B793BB1AB7984F83A305E
:107F8000AB7913B1EB7984F83B30089D042D28BF01
:107F900004250027E5626564201D84F83B70A76412
:107FA000043E01F0A1F8C5F1050504F1180056449E
:107FB00001F09AF8E764A56126F0070084F8507094
:107FC000246164624A46414600F05EFE099B2060DF
:107FD00003B11C602046FFF793FE0120BDE8F08747
:107FE0004FF0FF30BDE8F0873846FFF7A9F84FF0B3
:107FF000FF30F3E770B584B0002503AA02A901A8F9
:10800000CDE90155FEF7F4FB019C002C46D0029807
:10801000002843D0039E20630223B6003246A521E8
:1080200084F8513001F038FC206B1F4B6363043E31
:108030000644C4E91155201D84F8385084F83B509B
:10804000E56201F051F804F1180001F04DF826F056
:10805000070605231549A3612A46E56430462461D5
:10806000646284F8505000F00FFE20602046FFF755
:1080700047FE0F4B1C6000F0ADFD012811D14023DD
:1080800083F311880B490C4A0C4B4FF0FF340C6002
:1080900010601D6000F00EFE04B070BD044B0022A5
:1080A0001A6004B070BD00BF49444C4541830200D2
:1080B0001C460020204600203C4600206846002048
:1080C000024A136801331360704700BFE84500207F
:1080D000014B1868704700BF68460020024A1368C9
:1080E00018441060704700BF684600202DE9F04F2B
:1080F000404B1B6883B0002B46D13F4B1E680136B6
:108100001E60002E4ED0DFF808B1DBF80030B3421D
:108110005FD83A4F3B681D68002D65D0DFF8F480CA
:10812000DFF8F4A0DFF8F490002522E0019101F0DF
:1081300007F8A36A019904F1180013B101F000F8DF
:108140000199E36AD8F8002003EB830093420AEB1D
:10815000800088BFC8F8003000F0CAFFD9F80020BE
:108160003B68E16AD26A1B68914228BF0125002B57
:108170003AD03B68DB68DC686368211D9E42084694
:10818000D4D2CBF8003004E01D4A136801331360E9
:1081900000251C4B1B68002B0CBF2846012003B098
:1081A000BDE8F08F154B184A1868184914681C6010
:1081B00010600A6801320A601A6812685AB9DFF85A
:1081C00050B04FF0FF33CBF80030DBF80030B34253
:1081D0009FD90025DDE71B68DFF834B0DB68DB687A
:1081E0005B68CBF8003090E74FF0FF33CBF80030FE
:1081F000CFE700BFE845002068460020704500201A
:10820000E44500206C4600207445002024460020F0
:1082100020460020F0450020784500206C450020D5
:108220002DE9F04F83B000F06BFD3A4B1A68013A2C
:108230001A601B68002B55D1374B1B68002B51D09F
:10824000364D2B68002B62D0354EDFF8EC80354F71
:10825000DFF8E8904FF0010AEB68DC6804F1040BEA
:1082600004F1180000F06CFF584600F069FFE36A63
:10827000326803EB83009342594608EB800088BFC5
:10828000336000F035FF3B68E26ADB6A9A4231D323
:10829000C9F800A02B68002BDED1234B1A681268A6
:1082A000002A2FD01A68214BD268D26852681A600F
:1082B0001F4E346844B10125FFF718FF08B1C9F813
:1082C0000050013CF8D13460D9F8003053B1194B5B
:1082D0004FF080525A6040BFBFF34F8FBFF36F8F94
:1082E000012000E00020019000F014FD019803B08F
:1082F000BDE8F08F2B68002BAED10B4B1A681268CB
:10830000002ACFD1094B4FF0FF321A60D0E7DFF8D7
:108310002C90CDE7E8450020DC45002028460020D1
:10832000F04500206C4500207045002020460020CC
:10833000E445002000ED00E0784500206C46002078
:108340002DE9F84F3A4CDFF804913A4D3A4EDFF8F8
:1083500000813A4FDFF8FCB02368EBB100F0D0FCAD
:10836000D9F80C30D3F80CA00AF1040000F0E8FEB4
:108370002B68013B2B602368013B236000F0CAFCA3
:108380009AF85130002B34D0012BE5D15046FEF73E
:10839000D7FE2368002BE1D13368012B08D94FF0B9
:1083A0008053CBF8043040BFBFF34F8FBFF36F8FC4
:1083B00000F052FED8F800301BBB3B68DB6A002B94
:1083C000CAD13368012BC7D81D4B1E4A1B681268DF
:1083D0009B1A012BC0D91C4A136801331360D8F8CB
:1083E0000030A3B13B68DB6A03B93368FFF718FFBD
:1083F000B2E7DAF83000FEF7A3FE5046FEF7A0FE23
:10840000AAE73B68DB6A002BA6D13368A4E73B6888
:10841000DB6A002BEAD13368012BE7D8084B1868D8
:10842000084B1B68C01A0128E0D900F0E3FCDDE727
:10843000E0450020DC450020784500206C45002008
:108440002046002068460020E845002054460020D1
:10845000F045002000ED00E0294B1B681BB1294BC3
:1084600001221A607047274A70B5274C13602268B2
:10847000236812681B6B9A423CD9244D244B2A680E
:1084800002EB820080009100185808BB501E00EBE0
:108490008006B60081009E5956BB901E00EB8006F8
:1084A000B60081009E591EBBD01E00EB8006B600B0
:1084B00081009E59E6B9101F00EB8006B6008100CE
:1084C0009E59AEB9053A02EB82008000910018581F
:1084D000114403EB81000346416849684160083359
:1084E000994204BF49684160CB6823602A6070BD2F
:1084F0000246EDE7206821683431FEF775F9BCE7E4
:10850000E84500206C4600206C450020F045002026
:108510007845002070B5174D2B680C4603F1180103
:1085200000F0F6FD144B1E682868043000F008FEC9
:10853000631C17D02B68A4195C6007D30F4B186815
:108540002968BDE87040043100F0E2BD0C4B1868AA
:108550002968043100F0DCFD0A4B1A68944238BFE8
:108560001C6070BD29680848BDE87040043100F007
:10857000BFBD00BF6C450020684600207445002048
:1085800070450020204600204046002070B5194D5F
:108590002B6816460C4603F1180100F0A9FD164B96
:1085A0005EB11B682868043000F0CAFD29681348D2
:1085B000BDE87040043100F09BBD1E68286804309F
:1085C00000F0BEFD2B68A4195C6007D30C4B186843
:1085D0002968BDE87040043100F09ABD094B186865
:1085E0002968043100F094FD074B1A68944238BFA3
:1085F0001C6070BD6C45002068460020404600208D
:1086000074450020704500202046002030B5C36826
:10861000DC6804F1180583B0284600F091FD1C4B7E
:108620001B683BBB211D0846019100F089FD194ADA
:10863000E36A106801998342174888BF136003EB0F
:10864000830300EB830000F053FD144BE26A1B68C8
:10865000DB6A9A4282BF124B01201860114B1A68E4
:10866000126898BF002052B90F4B4FF0FF321A60CA
:1086700003B030BD0D48294600F03AFDE5E71A6821
:10868000094BD268D26852681A6003B030BD00BF8F
:10869000E8450020F0450020784500206C4500208A
:1086A0006C4600207045002020460020284600200F
:1086B000034A044B12681B68C0E90023704700BFDF
:1086C0002446002068460020F0B50D4683B00446DD
:1086D00000F016FB2B68144A591C10681DD0DFF8F7
:1086E0004CC0D4E90061DCF80070BE4208D0814281
:1086F00006D80120019000F00DFB019803B0F0BDF9
:10870000471ABB420BD91B1A0B44DCF80010126845
:108710002B600020C4E90012ECE70020EAE7002308
:108720002B600120E6E700BF6846002024460020B9
:10873000014B01221A6070476C460020094B1868F3
:1087400018B9094B1B6813B1704700207047074ADE
:10875000074B10681B68013B984214BF01200220A0
:10876000704700BF284600206C460020404600208D
:10877000DC450020054B1B6833B1054B1B68002B03
:108780000CBF022000207047012070473C460020AB
:10879000E845002070B5044682B0C8B11D4DC36ADB
:1087A0002A68D26A934215D28269002A04DB2A68B9
:1087B000D26AC2F105028261174E626903EB83033C
:1087C00006EB83039A420ED02B68DB6AE36201203A
:1087D00002B070BD2B68406CDC6AA0422CBF002048
:1087E000012002B070BD211D0846019100F0A8FCD7
:1087F0002A680A4BD06A1A680199E062904200D94F
:10880000186000EB800006EB800000F071FC012096
:10881000DEE700BF6C45002078450020F0450020D1
:1088200068B130B5836CC16A426C013B914283B040
:108830000446836400D023B1002003B030BD002083
:108840007047011D0846019100F07AFC0A4A636CEA
:108850001068E3628342094888BF1360C3F10505CD
:1088600003EB830300EB83000199A56100F040FC5A
:10887000012003B030BD00BFF04500207845002046
:1088800070B130B5426CC36A914238BF11468B4219
:1088900083B0044602D0826C012A02D003B030BDFE
:1088A00070478269114DC162002A03EB830342695C
:1088B000A8BFC1F1050105EB8303A8BF81619A42FE
:1088C000ECD1011D0846019100F03AFC084BE06A2A
:1088D0001A680199904288BF186000EB800005EB90
:1088E000800003B0BDE8304000F002BC78450020B5
:1088F000F0450020044B1A681AB119688A6C0132DD
:108900008A641868704700BF6C4500202DE9F04369
:108910001D4EDFF87C9085B04FF000080CE0DB685E
:10892000DC681F68251D284600F00AFC636A2046A3
:108930009847E369012B0AD033681A68002AEED100
:10894000124A11683160136005B0BDE8F083A36975
:108950003B449F42294610D3D9F80030002BEBD07E
:10896000CDE900870294FFF705FF0023D9F8000046
:108970001A466946FEF764FCDEE7306863602461EE
:1089800000F0C6FBD8E700BF704600207446002008
:10899000F44800202DE9F04F894E8A4CDFF82C82F4
:1089A000894DDFF82CA28BB03368D3F800B0BBF14F
:1089B000000F00F0A980DB68D3F800B0FFF780FB60
:1089C000FFF786FB22688242814600F2AE80834533
:1089D000206040F2BF8000222868ABEB0901FFF75E
:1089E00029F9FFF71DFC40B94FF08053CAF8043055
:1089F00040BFBFF34F8FBFF36F8F2868002202A9DB
:108A0000FEF7FEFD0028CFD0029B002B73DBDDF8C4
:108A10001090D9F814301BB109F1040000F090FB5C
:108A2000FFF756FB236898420746C0F08580029BFB
:108A30002760092BE1D801A252F823F0658A0200D1
:108A4000658A0200658A0200FB890200BF8A020073
:108A5000E78A0200658A0200658A0200FB8902003B
:108A6000BF8A02000398D9F81830C9F81090C218CC
:108A70002CBF01210021BA42C9F804205FD8381A5E
:108A8000834228D8D9F8243048469847D9F81C3072
:108A90002868012BB2D10028B0D0D9F81820039B48
:108AA00000211344CDE907390691FFF763FE002347
:108AB00028681A4606A9FEF7C3FB28689EE7039BB1
:108AC000C9F81090DA19BA42C9F81830C9F8042068
:108AD00039D8002B91D0D8F8000009F1040100F03A
:108AE00017FB28688AE799F82C30002B85D1484677
:108AF000FEF726FB81E7039BDDE904019847029B13
:108B0000002BFFF67AAF82E7FFF7DAFAFFF7E0FA19
:108B100022689042814608D3D8F80020C4F800901B
:108B20001268B2FA82F2520956E7FFF7EFFEC4F874
:108B30000090FFF775FB60E7FFF7E8FE77E7B842C4
:108B400001D900299ED0306809F1040100F0E0FA53
:108B5000286853E7FFF764FB3268D268D768391D8D
:108B60000846019100F0ECFAF8690199012803D058
:108B70007B6A3846984740E7BA693F610BEB0200D1
:108B80004845786003D9306800F0C2FAF0E7A9EBF5
:108B90000B039A420FD82B68002BE9D00023CDE9B4
:108BA000063B0897FFF7E6FD002328681A4606A94A
:108BB000FEF746FBDCE7D8F8000000F0A9FAD7E79B
:108BC00070460020A0480020F44800207446002091
:108BD00000ED00E0F0B51F4C89B000F091F8256879
:108BE000F5B100F097F82068C0B1002407AA06A9E3
:108BF00005A8CDE90544FDF709FEDDE905310222AE
:108C0000CDE900210293079A134914482346FFF740
:108C100009F9134B1860001B18BF012009B0F0BD03
:108C2000104F114E384600F053FA304600F050FA1B
:108C30000E4A0F4900950F4B17600E600E4A102127
:108C40002020FEF78BFA20600028CAD00B49FEF7DF
:108C5000DFFFC6E7F4480020DC9E02009589020091
:108C6000F8480020784800208C48002070460020FA
:108C700074460020A448002078460020D49E0200BC
:108C8000402383F31188FEE730B46FF00203084CF1
:108C900040F80C4C4FF0807540F8045C40F8081C1C
:108CA00040F8202C40F8243C30BC4438704700BFCA
:108CB000818C02000F4C08B5E02384F8223000F0CC
:108CC0007BF80D4B0D4A00211960D4F8883043F42D
:108CD0007003C4F88830536843F0404353602369FD
:108CE00043F01003236100F065F9402383F31188FA
:108CF000FEE700BF00ED00E0FC48002030EF00E0A0
:108D0000402383F31188024A1368013313607047CC
:108D1000FC480020034A1368013B13600BB983F33E
:108D200011887047FC48002041DF704712DF704710
:108D300070B51D4B00221A6082B01B680193019B25
:108D4000EFF31186402383F311881849184BD1F8AB
:108D500004451A601B680093009BFFF7B9F9201ABD
:108D600020F07F4323F0010320F07F459BB96C1E68
:108D70006DB10025FFF7BAF9013C631C45EA000517
:108D8000F8D125B10B4B4FF080525A6040BF86F3AB
:108D9000118802B070BDFFF7EDFC0228E7D0FFF7A5
:108DA000A5F90546EDE700BF401101400010014064
:108DB0000011014000ED00E00B4B0C4930B41F20C6
:108DC0000B4DC3F8080501220224E020C3F8042358
:108DD0002A601A60C3F8444381F811034FF400334A
:108DE0000B6030BC704700BF0010014000E100E0A4
:108DF000081001402DE9F041054684B0EFF31082E0
:108E000072B6614CA36883B9604B61480121A160CF
:108E1000D3F8801001402160C3F88000D3F884109B
:108E200061604FF0FF31C3F8841002B962B6594E49
:108E3000D6F80485FFF782FC78B3574F574AAF4204
:108E400028BF2F4607EB080323F07F4301214FF093
:108E5000000CC6F80813C6F84035C2F800C0136805
:108E600001934FF480330198C6F80433BFF34F8F5A
:108E700025BBC6F8083315601268494B0392039A64
:108E80001D601B680293414B029AC6F804134FF40D
:108E90000032D6F80415C3F88021A3685BB1EFF364
:108EA000108272B6394B21681960616859600023DD
:108EB000A36002B962B604B0BDE8F081F1EE103AE9
:108EC00023F09F03E1EE103AF1EE103A2F4D4023CC
:108ED000C5F8843103A88DF80CC0FFF727FF9DF873
:108EE0000C30002B4DD12B4620BFD3F80011D3F806
:108EF00004210A43F8D0274B2848294A4FF48031EF
:108F0000C3F8081300210160006803900398116002
:108F10001268029201220299C3F80423D3F804359F
:108F20001A4AA3EB080828F07F48474528BF474660
:108F30004FF40033012FC2F8803120D9781EFFF79B
:108F4000CDF8184BDB68DA010FD5174A1368DB0739
:108F50000BD5164B516803FB07F7A7F57427A7F548
:108F60001077BF0A01EB87175760FFF7BFF800289B
:108F700093D00F4B4FF080525A6040BF8DE7F4D032
:108F80008BE7FFF7D1FEB6E73849002000E100E0AB
:108F9000FC06FFBD00100140FDFFFF004011014035
:108FA00000110140F0ED00E0001000E040420F0031
:108FB00000ED00E00748006880F3088862B661B6FB
:108FC000BFF34F8FBFF36F8F4FF0E00080F3118836
:108FD00000DF00BF00600200064B19680868B0E8B7
:108FE000F04F80F30988BFF36F8F4FF0000080F3DC
:108FF000118870476C450020EFF30980BFF36F8F35
:10900000144B1A681EF0100F08BF20ED108A20E9DB
:10901000F04F10604DF8043D4FF0400080F3118890
:10902000BFF34F8FBFF36F8FFFF716FA4FF00000BB
:1090300080F3118808BC19680868B0E8F04F1EF08A
:10904000100F08BFB0EC108A80F30988BFF36F8F50
:10905000704700BF6C450020704700BF10B540222C
:109060000021044600F018FC0023C4E91033204618
:1090700010BD00BF10B4D0E91024531C03F03F030F
:109080009C4218BF81545DF8044B18BF03647047BD
:109090000023C0E910337047D0E91023934206D073
:1090A0005A1CC35C02F03F024264184670474FF0FE
:1090B000FF307047D0E91030181A48BF4030704771
:1090C000D0E91023934214BFC05C4FF0FF307047CB
:1090D00000F108034FF0FF310022C0E90333816043
:1090E00002604360704700BF00230361704700BF08
:1090F0004368026810B49C688C609C684B600132C5
:10910000616099605DF8044B08610260704700BFC0
:1091100030B40D686B1C10D000F108031C465B686E
:109120001A68AA42FAD902684B60013299608C60D1
:109130006160086130BC0260704704696368F2E7EF
:10914000036910B4D0E901125C688A6084425160FE
:1091500008BF5A601A685DF8044B0021013A0161AA
:109160001A601868704700BF08B50021044600F077
:109170000BFC044B1868C36B03B19847204600F002
:1091800031FE00BFE49E020070B50D4E0D4D761B02
:10919000B61006D0002455F8043B01349847A64287
:1091A000F9D1094E094D761B00F01EFEB61006D00F
:1091B000002455F8043B01349847A642F9D170BD0C
:1091C000443E0020443E0020543E0020443E002007
:1091D000024B0146186800F00BB800BF04360020AF
:1091E000024B0146186800F0A1BC00BF0436002005
:1091F0002DE9F04F01F10B05162D83B0064624D85A
:10920000102900F2B78000F097FB102502211823E7
:10921000DFF8F0844344A3F108025C68944200F054
:10922000B580636823F003032344D4E902515A68EC
:10923000E96042F0010230468D605A6000F082FB26
:109240000834204603B0BDE8F08F35F0070500F183
:109250009180A94200F28E8000F06EFBB5F5FC7F94
:10926000C0F090816B0A00F08C80042B00F26681C4
:10927000AB0903F1390103F13807CB00DFF884842F
:109280004344A3F108005C68A04206D10CE0002A28
:1092900080F22281E468A04206D0636823F00303D1
:1092A0005A1B0F2AF3DD3946D8F81040DFF858C4AE
:1092B000644577D0626822F00302531B0F2B00F342
:1092C0006F81002BC8E904CC80F26081B2F5007F89
:1092D00080F01081D3080133500901228240D8F870
:1092E000040058F83370A76008EBC30E0243AEF1D8
:1092F0000800E060C8F8042048F83340FC608B1098
:1093000001209840904254D8104206D121F0030128
:109310004000104201F10401FAD008EBC1094C46AB
:109320008E46E768BC4207D114E1002B80F21B8116
:10933000FF68BC4200F00E817A6822F00302531BE2
:109340000F2BF2DDD7E902E4791945F001057D60C4
:1093500043F00105CEF80C403046C4F808E0C8E9F7
:109360000411C1E902CC4D60BB5000F0EBFA07F1EB
:10937000080402E00C2333600024204603B0BDE85B
:10938000F08F4FF4007340213F2777E7DC68A3425A
:1093900008BF02317FF445AFD8F81040DFF868C34A
:1093A000644587D1D8F804208B1001209840904262
:1093B000AAD9D8F80840676827F00307BD4202D849
:1093C0007B1B0F2B77DCDFF84493CA4BD9F80020C6
:1093D0001B6801322B4404EB070A00F02E8103F5D1
:1093E00080530F3323F47F6B2BF00F0B594630461D
:1093F00000F0AEFA411C024600F0EB80824500F21C
:10940000E680BD4B196859441960084600F04B814D
:10941000D9F80010019301311BBFA2EB0A0A504496
:10942000C9F80020186012F0070A00F01481CAF190
:1094300008010A44CAF5805193440831A1EB0B019D
:10944000C1F30B0949463046009200F081FA421CF4
:10945000DDE9002300F05C81801A00EB090B19683C
:10946000C8F808204BF00100494444455060196099
:1094700000F026810F2F40F2258160680C3F27F015
:10948000070700F0010004EB070C38434FF0050E0E
:109490000F2F6060CCE901EE00F242815068144663
:1094A000964B1A688A4238BF1960954B1A688A42EF
:1094B00038BF196090E0621943F0010345F00105DF
:1094C00065603046C8F80820536000F03BFA083465
:1094D000204603B0BDE8F08F2344E1685A68A568D0
:1094E00042F00102E96030468D605A6000F02AFACD
:1094F000083442E7B2F5206F4FEA522361D3142BB0
:1095000000F2BA8003F15C00C0005B3308EB000797
:1095100058F80000083F874200F09280436823F02B
:109520000303934202D980688742F7D1C768D8F80D
:109530000420C4E90207BC60C460E0E6142B59D9DA
:10954000542B00F2A1802B0B03F16F0103F16E0786
:10955000CB0093E60EF1010E1EF0030F04F1080498
:109560007FF4DFAE51E03A443C465368F96854F862
:10957000085F43F0010353603046E9608D6000F0FE
:10958000E1F9FAE6E90805F1080341E6224430462C
:10959000536843F001035360083400F0D3F9ECE65C
:1095A000611943F0010745F0010565603046C8E9DF
:1095B0000411C1E902CC4F60A35000F0C3F9083494
:1095C000DBE6930903F13900C00038339EE74445D8
:1095D00064D0D8F80840606820F0030B5D45ABEB21
:1095E000050302D80F2B3FF766AF304600F0AAF90B
:1095F0000024C2E603F15C0103F15B07CB003DE60A
:1096000059F808394B4540F0AA8011F0030F01F1D9
:10961000FF31F5D1D8F8043023EA0003C8F804304C
:10962000400098423FF6C5AE18B9C2E640000EF1C0
:10963000040E1842FAD071466FE603F1100BD5E61E
:109640009A104FF0010ED8F804300EFA02F21A43C5
:10965000C8F804206DE702EB0B014942C1F30B0986
:1096600049463046009200F073F9431CDDE90023BF
:109670007FF4F2AED146F2E6542B26D8130B03F159
:109680006F00C0006E3341E7B3F5AA7F26D8EB0B1D
:1096900003F1780103F17707CB00EFE5164B18686B
:1096A00058441860B4E6CAF30B0CBCF1000F7FF409
:1096B000AFAED8F80840BB444BF001006060EFE665
:1096C0001446EDE6012353608FE7B3F5AA7F33D844
:1096D000D30B03F17800C000773317E740F2545200
:1096E000934233D8AB0C03F17D0103F17C07CB002F
:1096F000C4E500BF3049002000490020284900206F
:109700002C490020303A0020383A0020383E002012
:10971000AAF1080AD344ABEB020B4FF000099EE616
:1097200004F108013046009300F000FAD8F8084030
:10973000009B60681968B3E640F2545083420AD82F
:10974000930C03F17D00C0007C33DFE64FF47E73A1
:109750007F217E2792E54FF47E707E23D6E6D8F8EF
:1097600004305DE7844641EA000313F003036DD142
:10977000403A41D351F8043B40F8043B51F8043BD4
:1097800040F8043B51F8043B40F8043B51F8043BDB
:1097900040F8043B51F8043B40F8043B51F8043BCB
:1097A00040F8043B51F8043B40F8043B51F8043BBB
:1097B00040F8043B51F8043B40F8043B51F8043BAB
:1097C00040F8043B51F8043B40F8043B51F8043B9B
:1097D00040F8043B51F8043B40F8043B51F8043B8B
:1097E00040F8043B51F8043B40F8043B51F8043B7B
:1097F00040F8043B403ABDD2303211D351F8043B1B
:1098000040F8043B51F8043B40F8043B51F8043B5A
:1098100040F8043B51F8043B40F8043B103AEDD2C9
:109820000C3205D351F8043B40F8043B043AF9D21A
:10983000043208D0D2071CBF11F8013B00F8013BED
:1098400001D30B8803806046704700BF082A13D3FA
:109850008B078DD010F003038AD0C3F10403D21A12
:10986000DB071CBF11F8013B00F8013B80D331F846
:10987000023B20F8023B7BE7043AD9D3013A11F8C6
:10988000013B00F8013BF9D20B7803704B78437031
:109890008B78837060467047F0B4860746D0541EBC
:1098A000002A3CD0CAB2034601E0013C37D303F89A
:1098B000012B9D07F9D1032C2AD9CDB245EA052504
:1098C0000F2C45EA054534D9A4F1100222F00F0C03
:1098D00003F120071609674403F1100242E9045519
:1098E00042E902551032BA42F8D1721C14F00C0F42
:1098F00003EB021204F00F0613D0331F23F003030F
:109900000433134442F8045B9342FBD106F0030492
:109910002CB1CAB21C4403F8012B9C42FBD1F0BC11
:10992000704734461346002CF3D1F8E7144603463B
:10993000C1E71A462646E0E7014800F0FBB900BF40
:1099400064490020014800F0F7B900BF64490020D5
:1099500038B5074D0022044608462A6000F034FA64
:10996000431C00D038BD2B68002BFBD0236038BDD2
:1099700078490020024B13B1024800F06BB87047E1
:1099800000000000619A02002DE9F84F2F4B2DEDE9
:10999000028B834618680F4600F0CCF92C4BD3F8A5
:1099A0000080D8F84861AEB108EE10BA4FF0010956
:1099B0004FF0000A7468651E0CD4013406EB840471
:1099C00087B1D4F80031BB420CD0013D6B1CA4F12F
:1099D0000404F5D1BDEC028B1C4B1868BDE8F84FB0
:1099E00000F0AAB973682268013BAB420CBF7560F6
:1099F000C4F800A0002AE8D0D6F88801D6F804B050
:109A000009FA05F101420BD1904772685A4513D10A
:109A1000D8F84831B342D8D01E46002ECAD1D9E773
:109A2000D6F88C0101420CD1D4F8801018EE100A3F
:109A3000904772685A45EBD0D8F84861002EB9D1EA
:109A4000C8E7D4F880009047DFE700BF403E002021
:109A5000E49E0200002301461A46184600F06EB943
:109A600038B5084B084D5B1B9C1007D0043B1D44C8
:109A7000013C55F804399847002CF9D1BDE838402D
:109A800000F0B8B9583E0020543E0020F8B5244FED
:109A90000C460646FFF750FFBB685D68C4F57E6163
:109AA0000F3125F003054B1923F47F6323F00F03D7
:109AB000A3F58054B4F5805F07DB00213046FFF743
:109AC00047FFBB682B44984204D03046FFF73AFF6B
:109AD0000020F8BD61423046FFF73AFF01300DD05B
:109AE000104AB96813682D1B45F0010530461B1B51
:109AF0004D601360FFF726FF0120F8BD00213046BE
:109B0000FFF726FFBA68831A0F2BDEDD064C0549E6
:109B1000246843F00103001B53600860D5E700BFD1
:109B2000303A002000490020383E002000295ED055
:109B3000F8B50C460646FFF7FFFE54F8043CDFF884
:109B4000F0C123F00101A4F108004218DCF808700C
:109B50005568974225F0030500F08880DF075560BF
:109B600033D454F8087CC01B0CF108048368A3426A
:109B7000394469D05719D0F80CE07F68C3F80CE07D
:109B8000CEF80830FB0740F1968041F001034360B6
:109B90001160B1F5007F33D2CB08DCF8044001330B
:109BA0004A090121914021430CEBC3025CF8334088
:109BB000CCF80410083AC0E902424CF83300E060E7
:109BC0003046BDE8F840FFF7BDBE53195B68DF07BC
:109BD0000ED429440CF108049368A34273D0D468CE
:109BE000DC6041F00102A36042604150D1E7704760
:109BF00041F00103B1F5007F44F8043C1160CBD380
:109C0000B1F5206F4FEA51234AD28B0903F1390590
:109C1000ED0003F138025CF805300CEB0504083C5C
:109C20009C4259D05A6822F003028A4202D99B68AA
:109C30009C42F7D1DC68C0E90234A060D8603046AD
:109C4000BDE8F840FFF77EBE53195B68DB0766D4BA
:109C5000D2E90223294441F00104D3609A604460B0
:109C600041503046BDE8F840FFF76CBEDB072944A1
:109C700007D454F8083CC01A1944D0E90223D36031
:109C80009A60294B1B6841F001028B424260CCF87C
:109C9000080095D8254B30461968FFF7F7FE8FE787
:109CA000142B0AD9542B21D80B0B03F16F05ED00AF
:109CB00003F16E02AFE729448EE703F15C05ED0086
:109CC00003F15B02A7E741F00103CCE90400C0E91E
:109CD00002444360415073E7DCF804109210012500
:109CE00005FA02F20A43CCF80420A4E7B3F5AA7FF0
:109CF00006D8CB0B03F17805ED0003F177028AE774
:109D000040F25452934206D88B0C03F17D05ED00CE
:109D100003F17C027FE74FF47E757E227BE741F002
:109D20000103436011604BE73C3E002030490020B6
:109D3000303A0020704700BF704700BF2DE9F04760
:109D4000DFF880A00646DAF8000098460F469146F4
:109D5000FFF7F0FF1A4B1B68D3F8484124B365683E
:109D60001F2D26DC5EB9AB1C0135DAF800006560FA
:109D700044F82370FFF7E0FF0020BDE8F08704EB14
:109D800085030121C3F88890D4F88821A9400A43AB
:109D9000022EC4F88821C3F80881E4D1D4F88C31AC
:109DA0001943C4F88C11DEE703F5A674C3F84841E3
:109DB000D5E7DAF80000FFF7BFFF4FF0FF30DCE730
:109DC000E49E0200403E0020044A05491368002B2F
:109DD00008BF0B46184410601846704734490020ED
:109DE0007C490020FEE700BFF8B500BFF8BC08BC06
:109DF0009E467047F8B500BFF8BC08BC9E46704749
:109E0000000000000100000002000000030000004C
:109E1000040000000500000006000000070000002C
:109E200008000000090000000A0000000B0000000C
:109E30000C0000000D0000000E0000000F000000EC
:109E400010000000110000001200000013000000CC
:109E500014000000150000001600000017000000AC
:109E600018000000190000001A0000001B0000008C
:109E70001C0000001D0000001E0000001F0000006C
:109E80006C6F6F7000000000000001010000000115
:109E90000100000043616C6C6261636B00000000B4
:109EA0000000000000000000AD6B0200F56B020036
:109EB0006D6B0200556B0200656B02005D6B02006A
:109EC000816B0200496C0200496E0200C16A020007
:109ED000B96A0200546D725100000000546D722086
:0C9EE000537663000836002000000000EC
:089EEC0064C3FF7F01000000C8
:109EF4000090D0030836002000000000F438002051
:109F04005C390020C439002000000000000000007B
:109F1400000000000000000000000000000000003D
:109F2400000000000000000000000000000000002D
:109F3400000000000000000000000000000000001D
:109F4400000000000000000000000000000000000D
:109F540000000000000000000000000000000000FD
:109F640000000000000000000000000000000000ED
:109F740000000000000000000000000000000000DD
:109F840000000000000000000000000000000000CD
:109F940000000000000000000000000000000000BD
:109FA40001000000000000000E33CDAB34126DE65A
:109FB400ECDE05000B0000000000000000000000C3
:109FC400000000000000000000000000000000008D
:109FD400000000000000000000000000000000007D
:109FE400000000000000000000000000000000006D
:109FF400000000000000000000000000000000005D
:10A324000000000000000000303A0020303A002015
:10A33400383A0020383A0020403A0020403A0020C1
:10A34400483A0020483A0020503A0020503A002071
:10A35400583A0020583A0020603A0020603A002021
:10A36400683A0020683A0020703A0020703A0020D1
:10A37400783A0020783A0020803A0020803A002081
:10A38400883A0020883A0020903A0020903A002031
:10A39400983A0020983A0020A03A0020A03A0020E1
:10A3A400A83A0020A83A0020B03A0020B03A002091
:10A3B400B83A0020B83A0020C03A0020C03A002041
:10A3C400C83A0020C83A0020D03A0020D03A0020F1
:10A3D400D83A0020D83A0020E03A0020E03A0020A1
:10A3E400E83A0020E83A0020F03A0020F03A002051
:10A3F400F83A0020F83A0020003B0020003B0020FF
:10A40400083B0020083B0020103B0020103B0020AC
:10A41400183B0020183B0020203B0020203B00205C
:10A42400283B0020283B0020303B0020303B00200C
:10A43400383B0020383B0020403B0020403B0020BC
:10A44400483B0020483B0020503B0020503B00206C
:10A45400583B0020583B0020603B0020603B00201C
:10A46400683B0020683B0020703B0020703B0020CC
:10A47400783B0020783B0020803B0020803B00207C
:10A48400883B0020883B0020903B0020903B00202C
:10A49400983B0020983B0020A03B0020A03B0020DC
:10A4A400A83B0020A83B0020B03B0020B03B00208C
:10A4B400B83B0020B83B0020C03B0020C03B00203C
:10A4C400C83B0020C83B0020D03B0020D03B0020EC
:10A4D400D83B0020D83B0020E03B0020E03B00209C
:10A4E400E83B0020E83B0020F03B0020F03B00204C
:10A4F400F83B0020F83B0020003C0020003C0020FA
:10A50400083C0020083C0020103C0020103C0020A7
:10A51400183C0020183C0020203C0020203C002057
:10A52400283C0020283C0020303C0020303C002007
:10A53400383C0020383C0020403C0020403C0020B7
:10A54400483C0020483C0020503C0020503C002067
:10A55400583C0020583C0020603C0020603C002017
:10A56400683C0020683C0020703C0020703C0020C7
:10A57400783C0020783C0020803C0020803C002077
:10A58400883C0020883C0020903C0020903C002027
:10A59400983C0020983C0020A03C0020A03C0020D7
:10A5A400A83C0020A83C0020B03C0020B03C002087
:10A5B400B83C0020B83C0020C03C0020C03C002037
:10A5C400C83C0020C83C0020D03C0020D03C0020E7
:10A5D400D83C0020D83C0020E03C0020E03C002097
:10A5E400E83C0020E83C0020F03C0020F03C002047
:10A5F400F83C0020F83C0020003D0020003D0020F5
:10A60400083D0020083D0020103D0020103D0020A2
:10A61400183D0020183D0020203D0020203D002052
:10A62400283D0020283D0020303D0020303D002002
:10A63400383D0020383D0020403D0020403D0020B2
:10A64400483D0020483D0020503D0020503D002062
:10A65400583D0020583D0020603D0020603D002012
:10A66400683D0020683D0020703D0020703D0020C2
:10A67400783D0020783D0020803D0020803D002072
:10A68400883D0020883D0020903D0020903D002022
:10A69400983D0020983D0020A03D0020A03D0020D2
:10A6A400A83D0020A83D0020B03D0020B03D002082
:10A6B400B83D0020B83D0020C03D0020C03D002032
:10A6C400C83D0020C83D0020D03D0020D03D0020E2
:10A6D400D83D0020D83D0020E03D0020E03D002092
:10A6E400E83D0020E83D0020F03D0020F03D002042
:10A6F400F83D0020F83D0020003E0020003E0020F0
:10A70400083E0020083E0020103E0020103E00209D
:10A71400183E0020183E0020203E0020203E00204D
:10A72400283E0020283E0020FFFFFFFF000002001B
:10A73400544900207599020001620200356202004A
:08A74400A17002001162020085
:040000032000634531
:00000001FF
